:020000040000FA
:1000000000010400000000007A1B00007A1B0000C1
:1000100088110000941100006C1100007A1B000090
:100020007A1B00007A1B00007A1B00007A1B00007C
:100030007A1B0000703300007A1B00007A1B00005E
:100040007A1B00004C1100007A1B00007A1B000094
:100050007A1B0000901000007A1B00007A1B000041
:100060007A1B00007A1B00007A1B00007A1B00003C
:100070007A1B00005C1100007A1B00007A1B000054
:100080007A1B00007A1B00007A1B00007A1B00001C
:100090007A1B00007A1B00007A1B00007A1B00000C
:1000A0007A1B00007A1B00007A1B00007A1B0000FC
:1000B0007A1B00007A1B00007A1B00007A1B0000EC
:1000C0007A1B00007A1B00007A1B00007A1B0000DC
:1000D0007A1B00007A1B00007A1B00007A1B0000CC
:1000E0007A1B00007A1B00007A1B00007A1B0000BC
:1000F0007A1B00007A1B00007A1B00007A1B0000AC
:10010000FFFFFF00FFFFFF007A1B00007A1B0000CB
:1001100088110000941100006C1100007A1B00008F
:100120007A1B00007A1B00007A1B00007A1B00007B
:100130007A1B0000703300007A1B00007A1B00005D
:100140007A1B00004C1100007A1B00007A1B000093
:100150007A1B0000901000007A1B00007A1B000040
:100160007A1B00007A1B00007A1B00007A1B00003B
:100170007A1B00005C1100007A1B00007A1B000053
:100180007A1B00007A1B00007A1B00007A1B00001B
:100190007A1B00007A1B00007A1B00007A1B00000B
:1001A0007A1B00007A1B00007A1B00007A1B0000FB
:1001B0007A1B00007A1B00007A1B00007A1B0000EB
:1001C0007A1B00007A1B00007A1B00007A1B0000DB
:1001D0007A1B00007A1B00007A1B00007A1B0000CB
:1001E0007A1B00007A1B0000FFFFFF00FFFFFF00EB
:1001F000FFFFFF00FFFFFF00FFFFFF00FFFFFF000B
:100200006F8820000EFF20000E0188000000000013
:100210000C000700E0D720000100200011000700BB
:10022000000020000000E000020032000000020098
:1002300000000000C6040200000000000040DA00D8
:100240000000FE004440A900000020000000E00083
:100250000300320000002000A00188004440A800F4
:100260000000060091018800800078000000EB008B
:1002700015003700E280400032A0B4009101BA00BE
:10028000E280400032A0B4009102BA00E280400057
:1002900032A0B4000002EB00472BDE00F507B200ED
:1002A000602CE10004003A000059EB008301E900F2
:1002B000FDFF3E00040037006128E100010032002C
:1002C0000082EB00040007001101BA000200E00008
:1002D000E8FF3A00000006003159BA008301E90046
:1002E0000C0032002159BA008301E90008003200F5
:1002F0000400E00003003A00E280400032A0B400B5
:10030000F5FF370011D9BA008301E900FAFF3A007E
:100310008100E800E180400032A0B4000000060047
:100320000040DA000000FE0080407800E1CF50007D
:100330000B003200E2CF50000E0032000040EB0014
:10034000E0CF500011003A00721B8000680161008C
:1003500010C0B3000D00320001407800000006001C
:10036000F21A800068016100014078000700320045
:1003700004003700711A8000E880600010C0B300EC
:10038000020032000040EB00000006000000060002
:100390008001EB008180FB0008003700E04F510036
:1003A0000300320064372000E14F510001003200A9
:1003B0006438200064F079008301E800818F5100E7
:1003C000F6FF350000000600401BDE00070020009D
:1003D000E1CF520008003200E2CF52000A003200A2
:1003E000001B8800161B8800221B88000000EB0001
:1003F0000481FB0011003700801A8800961A8800DB
:10040000A21A8800F9FF3700001A8800161A88001F
:10041000221A8800F5FF370063352000E1CF520033
:100420000400320063362000E2CF520001003A009F
:1004300063342000E17178000000E800820F500072
:10044000F5FF35006F426200E1CF52000300320039
:10045000E2CF520013003A00090037006F0062003B
:100460004300DD00A41A800071F82F000102620031
:1004700000027200A41A88005E63A8000000060053
:100480006F0062004300DD00241A800071F82F0025
:100490000102620000027200241A88004E63A80064
:1004A000000006006F0062004300DD00241B800096
:1004B00071F82F000102620000027200241B880004
:1004C0006E63A80000000600889FBE00401CDE008E
:1004D000090020000002FB00CFA2DE00E50F520061
:1004E000E08F5A001E003E00046001000500370046
:1004F000070037000A0037000D00370010003700F2
:1005000013003700011888001818880016003700FB
:1005100041188800581888006218880013003700B6
:100520008118880098188800A21888000F003700EA
:10053000C1188800D8188800E21888000B0037001E
:10054000011988001819880022198800070037004F
:100550004119880058198800621988000300370083
:100560000118880018188800221888004F04BE005F
:1005700000000600401ADE0005002000E04F500099
:1005800006003200E14F500004003A00C119880013
:10059000D4198800E219880000000600811988003B
:1005A00094198800A2198800000006000000FA00D3
:1005B0000000EB00501688000000EB008016880059
:1005C0000000EB00B0168800D202A900D242A900B8
:1005D000D262A9000000EB00E0168800D882A900D2
:1005E000D8A2A9000000EB0010178800DE82A90045
:1005F000DEA2A9000080FA00000006001000FA0048
:10060000500798006107980072079800400020008A
:100610002007980000102000100798000000EB0051
:10062000400798000000EB00300798005E00900043
:10063000EE0090008100D1000080D30050079800A8
:1006400061079800BE0090004E009000EA04070089
:1006500010042400EB0407000E80E80080017800FD
:10066000420020003E009000CE0090009500070060
:1006700000022000000F78000B0037001E007800F9
:10068000010020003007980041079800BE0090004C
:100690004E009000D804070010042400D90407007D
:1006A000000220001E0F4000F00F20009E00780086
:1006B000808F5000F1FF360027003700DE009000E9
:1006C0006E009000CC0407005E019000EE019000E7
:1006D000F0FF200001002000800F5100818F5900A1
:1006E0000F0036005E019000EE019000F0FF2F0039
:1006F00001002000800F5100818F590008003E004A
:1007000010042400BF0407000060FE00FE009000FB
:10071000F0032000808F500003003E0006003700E9
:1007200010002000100037007E0090000004B1008F
:1007300070079800020037000000EB007007980077
:100740005E009000EE0090000004B0000180B00058
:1007500050079800610798007E009000E00F50005D
:10076000D6FF3A000000EB000080FA00000006000F
:100770000400FA00E0438000E10F4000090032006D
:10078000E04380004600DD0001002000008FBE0035
:100790009E0078001E0090009704070010002400BF
:1007A000980407000080FA00000006001200FA001A
:1007B000500798006107980072079800030F98008F
:1007C0005E009000EE0090008100D1000080D30018
:1007D0005007980061079800E04380006101B8006D
:1007E0005E009000EE0090004A0ADD004600DE0048
:1007F00000007200C608DE00800F5100818F590092
:1008000025003200DAFF07005E009000EE00900045
:100810004A09DD004600DE0000007100C608DE0067
:1008200000007800E0438800E04380004600DD00DF
:100830000100200030079800410798000000EB00FD
:10084000000F780011003700BE0090004E009000AD
:100850007B04070010079800210798009E01900074
:100860002E019000BE0090004E0090007004070022
:100870003E009000CE00900062004000E080480002
:1008800030079800410798001E0FE8001E0078000E
:10089000FF0F5000ECFF34007E0090008E089000A7
:1008A00010079800210798009E0190002E019000EB
:1008B000DE0090006E0090005D0407000080FA00EA
:1008C000000006000E00FA0030079800410798006B
:1008D00052079800630798000000EB00000F7800B3
:1008E000240037001E007800EE00900000804000D9
:1008F00010407800204798001E0FE8001E00780086
:10090000EE009000008040001040780030479800D2
:100910001E0FE8001E007800EE00900000804000EE
:1009200010407800404798001E0FE8001E00780035
:10093000EE00900000804000104078005047980082
:100940001E0FE8001E009000AE0090000001BE00E7
:100950003E009000CE00900094FF07003E00900003
:10096000CE00900064004000E0804800300798000E
:10097000410798009E0078005E009000808F500034
:10098000D8FF39000080FA00000006001000FA00CD
:100990006000B8006007980071079800000021000F
:1009A0000100200020079800310798000000EB00AC
:1009B000000F780014003700AE0090003E00900059
:1009C0001F0407004007980051079800FE009000A0
:1009D0005E0090000080680070079800EE009000B4
:1009E0004E00900000806800600798002E00900084
:1009F000BE00900062004000E080480020079800A0
:100A0000310798001E0FE800F07F23009E00780059
:100A1000808F5000E8FF3600000021000100200018
:100A20002007980031079800AE0090003E0090002B
:100A300003040700400798005107980000042000B5
:100A400013040700010020002007980031079800D8
:100A50002E019000BE019000A0A5250001002000FD
:100A6000800F5100818F590008003A004E0190001C
:100A7000DE019000F0FF2F00F10F2000800F5100E9
:100A8000818F59000100320019040700C7FE0700DA
:100A90001061A80084E0A9008CE0A90050030700C1
:100AA000E2A2A800C0438000D1438000E00F5000C4
:100AB000E08F580006003200C0438000D143800020
:100AC00061005000E0805800C0438800D143880096
:100AD000C0438000D1438000E00F5000E08F5800F9
:100AE00001003A00D642A800A0862000F8020700C4
:100AF000304798003E409000E04F50000100320027
:100B000011E1A9003E409000E14F5000BB013A00C6
:100B1000101780004500DE00614060000004A20064
:100B2000614060000080FB00610060004500DD0066
:100B300012178000F1FD2F0081006100008070001D
:100B4000101788002E4090008080FB0050438000EA
:100B5000808F50000F00320050438000EC0F500097
:100B60000C003E0050438000E00F500009003200AE
:100B70002E4090008080FB00001520000080700057
:100B800041C0B300840207000040EB0020479800FA
:100B9000D20137005043800001002000F200200005
:100BA00003002000820F5000838F580090013E0008
:100BB000006001000F003700A1003700A9003700D6
:100BC000B1003700B9003700C1003700C900370055
:100BD000D1003700D9003700E1003700E9003700C5
:100BE000F1003700F9003700010137001E0137001E
:100BF000B9013700E08620009F020700E28620004E
:100C0000124178008281FB00F286200012417800B8
:100C10000281FB004811DD00030171000200780031
:100C200002872000124178008281FB001287200099
:100C3000124178000281FB004811DD0003017100C0
:100C4000820078008101D1000081D30074C8BF0008
:100C50008080FB0075C8BF000080FB004800DD00FD
:100C60000100700001002000020140008381480063
:100C7000F00F200001002000800F5100818F5900EB
:100C800019003600E2862000124178008281FB00C4
:100C9000F2862000124178000281FB004811DD003D
:100CA00003017100020078000287200012417800E1
:100CB0008281FB0012872000124178000281FB0034
:100CC0004811DD0003017100820078008101D1002C
:100CD0000081D300F0FF200001002000800F5100B0
:100CE000818F59005000360072C8BF00624060001A
:100CF000E04F50004500320072C8BF006140600004
:100D0000E04F50003B0032006EC8BF006040600002
:100D10006EE8B7006FC8BF00E040600000C2B300DB
:100D200000C070006FE8B70070C8BF00604060008E
:100D300070E8B70071C8BF006040600071E8B7009C
:100D400074C8BF006040600074E8B70075C8BF0099
:100D5000E040600000CFB30000C0700075E8B7004D
:100D600074C8BF008080FB0075C8BF000080FB0016
:100D70004800DD000100700080017800E28620005C
:100D8000124178000282FB00F286200012417800B6
:100D90000281FB004811DD000401710002007800AF
:100DA00002872000124178000282FB001287200097
:100DB000124178000281FB004811DD00040171003E
:100DC00082007800030178000CFE0700E00F50005D
:100DD0000400320041C0B30000152000EE010700FE
:100DE0000700370011C0B30000152000EA0107001A
:100DF0000300370041C0B30000152000E6010700E2
:100E00000040EB00204798000500370011C0B300F8
:100E100000152000E001070010C0B3002047980033
:100E2000000000002D01370051C0B3000015200064
:100E3000D90107000040EB00204798002701370048
:100E4000008020000C02070011C0B3001015200024
:100E5000D10107002E4090000040E8002047980094
:100E60001E013700808020000302070011C0B3007C
:100E700020152000C80107002E4090000040E80027
:100E8000204798001501370000812000FA01070073
:100E900011C0B30030152000BF0107002E409000A4
:100EA0000040E800204798000C01370080812000B6
:100EB000F101070011C0B30040152000B601070082
:100EC0002E4090000040E8002047980003013700C2
:100ED00000822000E801070011C0B3005015200077
:100EE000AD0107002E4090000040E8002047980028
:100EF000FA00370080822000DF01070011C0B30034
:100F000060152000A40107002E4090000040E8007A
:100F100020479800F100370000832000D601070029
:100F200011C0B300701520009B0107002E409000F7
:100F30000040E80020479800E80037008083200048
:100F4000CD01070011C0B3008015200092010700F9
:100F50002E4090000040E80020479800DF00370056
:100F600000842000C401070011C0B30090152000C8
:100F7000890107002E4090000040E80020479800BB
:100F8000D600370080842000BB01070011C0B300E9
:100F9000A0152000800107002E4090000040E800CE
:100FA00020479800CD00370000852000B2010700DF
:100FB00011C0B300B0152000770107002E4090004B
:100FC0000040E80020479800C400370080852000DA
:100FD000A901070011C0B300C01520006E01070071
:100FE0002E4090000040E80020479800BB003700EA
:100FF0002E4090000080FB000080E9008000780017
:1010000074C8BF000081FB0075C8BF000080FB00F2
:101010004800DD00020070000000E9004300DE002F
:10102000808F5000090032002E4090008080FB002D
:10103000001520000080700041C0B3005601070079
:101040000040EB0020479800A40037007208A80079
:1010500011C0B300D01520004F010700E0C0B3005D
:10106000204798009D00370072C8BF0061406000B3
:10107000E04F50005800320072C8BF000042B2007A
:10108000E04F50003D003200E2862000124178001F
:101090008281FB00F2862000124178000281FB0071
:1010A0004811DD0003017100020078000287200072
:1010B000124178008281FB001287200012417800E3
:1010C0000281FB004811DD000301710082007800FD
:1010D000E00F5000E08F580008003A000040EB009D
:1010E00000E8B70010C0B30001E8B70040C0B3008B
:1010F00002E8B7000040EB0003E8B70074C8BF0087
:101100008080FB0075C8BF000080FB004800DD0048
:101110000100700000027800E28620001241780091
:101120008281FB00F2862000124178000281FB00E0
:101130004811DD00030171000200780002872000E1
:10114000124178008281FB00128720001241780052
:101150000281FB004811DD0003017100820078006C
:101160000380200004017800D6FD070011C0B30001
:10117000E0152000080107001A00370072C8BF0000
:101180000044B200E04F5000160032002E009000E4
:10119000BE009000000040008180480020079800B9
:1011A00031079800AE0090003E0090001202070048
:1011B00050042400130207002E019000BE0190008D
:1011C00000802000C100070011C0B300E01520001E
:1011D000F10007000300370041C0B300E015200014
:1011E000ED0007000040EB00204798003B0037006F
:1011F0000040EB0020479800380037003E40900048
:10120000E24F500035003A00101780004500DE0024
:10121000614060000004A200614060000080FB00AB
:10122000610060004500DD0012178000F1FD2F0015
:101230008100610000807000101788005143800019
:1012400000202000808F500003003A0061C0B300EE
:1012500010202000D0000700514380000022200011
:10126000808F500007003A0041C0B30000222000E8
:10127000C9000700A1A5250000042000F401070013
:10128000FFFF37005143800000062000808F500090
:1012900012003A0036FD0700A1A525000004200039
:1012A000EB01070000042000F9010700A1A52500BB
:1012B000810F500004003A0011C0B3000016200056
:1012C000B5000700FFFF370041C0B3000016200043
:1012D000B100070001003700000000000060FE00C0
:1012E000F0FD37000C00FA00300798004207980024
:1012F000530798000000EB00000F78001A00370039
:10130000CE0090005E009000CD010700100798000D
:10131000210798004E409000BE0090008048780061
:101320003E0090008000E8003E4090008048780039
:101330003E0090008080E8002E40900080487800B9
:101340003E00900063004000300798004E0090007F
:10135000DE00900062004000E080480040079800F6
:10136000510798001E0FE8001E007800FF0F500084
:10137000E3FF34000080FA00000006000C00FA00D1
:101380003007980042079800530798000000EB00D0
:10139000000F780016003700CE0090005E0090002D
:1013A000A701070010079800210798003E40900011
:1013B000BE009000804878003E0090008000E80069
:1013C0002E409000804878003E0090000080E800A9
:1013D000300798004E009000DE0090006200400050
:1013E000E080480040079800510798001E0FE80071
:1013F0001E007800EF0F5000E7FF34000080FA0075
:10140000000006000E00FA004007980052079800FE
:10141000630798000000EB00000F78000000EB006D
:1014200010079800220037001E009000CE009000A8
:101430000080400010407800404798001E00900057
:101440000000E800CE0090000080400010407800CE
:10145000504798001E0090000080E800CE009000E9
:101460000080400010407800604798000040EB008A
:10147000704798001E00900063004000100798001D
:10148000AE0190003E019000DE0090006E009000E2
:10149000670107005E009000EE00900062004000CF
:1014A000E080480050079800610798001E0FE80090
:1014B0001E007800FF0F5000DBFF340010002400F6
:1014C000500107000080FA00000006000E00FA003C
:1014D0004007980052079800630798000000EB004F
:1014E000000F78000000EB00100798001E00370086
:1014F0001E009000CE009000008040001040780058
:10150000404798001E0090000000E800CE009000C8
:101510000080400010407800504798000040EB00E9
:10152000604798000040EB00704798001E00900054
:101530000080E80010079800AE0190003E01900086
:10154000DE0090006E009000390107005E00900000
:10155000EE00900062004000E080480050079800D4
:10156000610798001E0FE8001E007800EF0F500082
:10157000DFFF340050002400220107000080FA0041
:10158000000006000400FA00000F78001107980020
:101590000080FA00000006000E00FA00881F7800A4
:1015A00050079800414F980080C0B300004F78006A
:1015B0004E48900010479800DE0090000020200068
:1015C000808F500013003200DE00900010202000B9
:1015D000808F50000F00320010C0B30020479800E9
:1015E0006EC8BF00304798006FC8BF0040479800E2
:1015F00071C8BF005047980072C8BF00604798008C
:1016000050C5B30070479800A0CAB300004F9800BF
:101610000900370060C0B300204798000040EB008D
:101620003047980010C0B3004047980040C0B30056
:10163000004F7800000000000040EB003AFB07007C
:10164000E04F5000FCFF32001E4478005E00900026
:10165000DD0007008E00E8008042EB0008427800C1
:101660000081EB008081EB0057FB07004F047800FE
:101670000080FA00000006000400FA00100798003D
:101680000040EB00004F78000B0037009E407800D0
:101690000180FB009E009000808040001E4078008A
:1016A0000081FB00E087200000004100104078002E
:1016B000804878001E4FE8001E407800E74F500039
:1016C000F2FF360010C0B3000080FA0000000600F0
:1016D0000400FA00100798000000EB00000F7800EB
:1016E000711C80000008200000806000E00F5000A6
:1016F0000B003200001C80004200DE00F17F200061
:1017000001006000000F78000041EB0081C0B300D1
:10171000E08720001EFB07008EE3A9000F003700C2
:10172000F11B80000008200000806000E00F5000E6
:101730000A003200001C80004200DE00F17F200021
:1017400001006000000F780012C0B30081C0B30038
:10175000E08720000EFB07007EE3A900F0042000D4
:101760009E007800808F50000D003600F0052000AC
:101770009E007800808F500009003E00001C800011
:101780004200DE00F17F200001006000EF006000F9
:101790001E0090000108780010C0B3000E00370052
:1017A000F00520009E007800808F50000900360070
:1017B000001C80004200DE00F17F2000010060007C
:1017C000800078001E0090000108780020C0B3005F
:1017D000010037000040EB000080FA000000060026
:1017E0000000FA00DEA2A900811C8000F08F2F000B
:1017F000808060000040200000807000801C880015
:10180000000000000100370000000000811C800083
:10181000000E20008080600000082000808F5000B3
:10182000F9FF3A0064E3A8006503A80091E3A8006B
:1018300091A3A9009183A8009163A800911C800046
:1018400000FC2F00008060003000B300901C880076
:10185000911C8000F0F32F008080600000042000C5
:1018600000807000901C880095C3A900A11C800016
:1018700080FF2F0000806000A01C8800A11C800059
:101880008003200000807000A01C8800A11C800044
:10189000F08F2F00808060000050200000807000DA
:1018A000A01C880094E3A80094C3A8006023A900AA
:1018B0006003A900701B80003000B300701B88001B
:1018C0006523A9005023A9005003A900F01A800045
:1018D0003000B300F01A88005523A9008EE3A90058
:1018E0007EE3A9008E43A8003003A9003803A900B5
:1018F0000003A9000803A9006011B8008000EB00F4
:101900000040EB001BFB07006011B8008000EB00FB
:1019100010C0B30017FB07000081EB008081EB00D3
:101920008080EB000040EB00E7FA07000081EB004D
:101930008081EB008080EB0010C0B300E2FA07006A
:101940000081EB008081EB008080EB0020C0B300C1
:10195000DDFA07000081EB008081EB008080EB0066
:1019600030C0B300D8FA07000081EB008081EB00A3
:101970008080EB0040C0B300D3FA07000081EB0089
:101980008081EB008080EB0050C0B300CEFA0700EE
:10199000811C8000F08F2F0000806000801C880078
:1019A000000000000100370000000000811C8000E2
:1019B000000E200000806000E00F5000FAFF3A00A7
:1019C0000080FA00000006000200FA00000F780014
:1019D000007C20001E006000C500DD001E007800B5
:1019E0004201DD00F00F2000000061000080700067
:1019F0000080FA0000000600203B8800113B8800B0
:101A000000000600003B880050052000303B8800A5
:101A1000A00A2000303B880061E7A8000000000019
:101A20000000000061E7AF00FEFF37000000060085
:101A3000900188008308BB008288BB00000006007C
:101A4000900188001100BA009180BA0000000600E1
:101A5000841F7800F407200094018800243B88004C
:101A600004C02F004100DD0004004000103B88004E
:101A70001200070044002400043B88000108BB005A
:101A800010000700010078004F02780000000600F7
:101A9000841F7800F407200094018800243B88000C
:101AA00004C02F00143B88004100DD000402400008
:101AB0001400BA004F02780000000600440424001D
:101AC000043B88001000FC0054052000343B8800D3
:101AD000A40A2000343B880061E7A8000000000051
:101AE0000000000061E7AF00FEFF370000000600C5
:101AF00000100400000000000000060000080000C4
:101B000076000000000000007608000008000000D9
:101B10000200000001002000A1070000FFFF0000FC
:101B20007E08000008000000000000000000000027
:101B3000FFFFFF00FFFFFF00FFFFFF00FFFFFF00B1
:101B4000FFFFFF00FFFFFF00FFFFFF00FFFFFF00A1
:101B5000FFFFFF00FFFFFF00FFFFFF00FFFFFF0091
:101B6000FFFFFF00FFFFFF00FFFFFF00FFFFFF0081
:102000006F9520000EFF20000E01880000000000E8
:102010000C000700402D23000100200011000700E4
:10202000000020000000E00002003200000002007A
:1020300000000000C0180200000000000040DA00AC
:102040000000FE004440A900200021000000E00044
:102050000300320000002000A00188004440A800D6
:102060000000060091018800800078000000EB006D
:1020700015003700E280400032A0B4009101BA00A0
:10208000E280400032A0B4009102BA00E280400039
:1020900032A0B4000002EB00472BDE00F507B200CF
:1020A000602CE10004003A000059EB008301E900D4
:1020B000FDFF3E00040037006128E100010032000E
:1020C0000082EB00040007001101BA000200E000EA
:1020D000E8FF3A00000006003159BA008301E90028
:1020E0000C0032002159BA008301E90008003200D7
:1020F0000400E00003003A00E280400032A0B40097
:10210000F5FF370011D9BA008301E900FAFF3A0060
:102110008100E800E180400032A0B4000000060029
:10212000809FBE00829FBE00841F78003400F800AC
:1021300000002000A00188008560A9003114800003
:10214000803E2000808F500001003600E282A9000E
:10215000E0438000F1438000E2438000F3438000CD
:102160001414800004004000E0804800421ADD00A2
:102170004E11DE0002017200CE19DE000200500096
:1021800083805800E0438800F14388003400F90060
:102190004F0278004F01BE004F00BE000040060015
:1021A0008D60A900D462A900000006008001EB0048
:1021B00003158800F1CF2F008000FD00A022B6009B
:1021C0008000FD0002158000F1F12F008100610008
:1021D0000160A00001158800A062A800A042A8002C
:1021E0001315880000302000A222B70031FC2F0018
:1021F0008000FD00A222B6008000FD00A342A800DE
:1022000012158000F1FF21008100610001D0A000C3
:102210001115880022158000F10F2E008100610049
:1022200001B0A000211588002215800001FC2F00BC
:10223000810061000130A00021158800331588005D
:10224000F1F32F008000FD00A622B6008000FD0003
:10225000A682A900A6A2A8004315880010002000AD
:1022600050158800A1E2A800000006000001BE0091
:102270000A21EF0000402200410F2000C0050700A6
:102280000000E9007008880084E0A9008CE0A90043
:1022900013E1A800000006003400F800881F780051
:1022A00008002000A80188004F04780084E0A900FD
:1022B0003400F900004006003400F800881F780060
:1022C00008002000A80188004F0478008660A9005B
:1022D0003400F90000400600809FBE003400F80082
:1022E00000002000A00188008080A900E04180005B
:1022F000F141800061004000E0804800E04188003A
:10230000F14188003400F9004F00BE000040060093
:102310003400F800881F780008002000A801880019
:102320004F047800FFFF37003400F800881F780062
:1023300008002000A80188004F047800FFFF370044
:102340006045800071458000C0418800D14188000F
:10235000AC28EF00AE28EF00A0418000B141800022
:1023600061004000E0804800A0418800B141880041
:1023700000000600408D2000770F0700E04F50005E
:1023800027003200A046800001202000810F50006D
:102390003A01320001212000810F50004801320033
:1023A00001602000810F500043013A00A08B200003
:1023B000A194200007000900315878008041800076
:1023C000E00F500025013A00BAC8BF00EC406000A1
:1023D000ECCF5000400132000081FB00E4016100BD
:1023E000E11680000120A10083807000E1168800C2
:1023F00068016100E11680000130A1008280700058
:10240000E11688008000D100E1806000B0168000F5
:102410000000A10001007000B01688000000060056
:10242000B01680006140600080404000B2C8BF002C
:102430000014A10001407000B2E8B700D11680007E
:10244000C408DE00E1C06000220020008208DD0038
:102450000024A1008140700001007800B2E8B700BC
:10246000D01680004500DE00614060003200200090
:102470000200DD000134A10000C07000B2E8B70026
:1024800081418000E1C06000420020008208DD0040
:102490000044A1000141700002007800B2E8B700DA
:1024A000A0438000B1438000CD09DD004300DE0081
:1024B00000807100C308DE00E0C2AB00870032007C
:1024C00000004000E14F2A00E1007800E0CFB300B7
:1024D000E30F2000838F500003003C000040EB001E
:1024E000E08F5000DB003D00B3E8B700B01680007D
:1024F0004200DE00614060000204A1000040710063
:10250000B2E8B700E0C2AB00910032007046800034
:102510004400DE00613920000100B80042062000BE
:102520000300200016050700B4E8B7004800DE00ED
:10253000B5E8B700E0438000F1438000420ADD00C7
:102540004E00DE0000007200CE08DE007D09B900FA
:102550007D00B80081004100A2002000030020009F
:1025600016050700B6E8B7004800DE00B7E8B70078
:10257000E0C2AB00630032002044800031448000A0
:102580008100D1000080D300643920000489B900A3
:102590000400B80081004100823E200003002000BA
:1025A000F7040700B8E8B7004800DE00B9E8B70054
:1025B0000040EB0051040700E04F500094003A0047
:1025C000804680008000E80081468800E50F5000CA
:1025D00041003600D028EF00D191200091407800D2
:1025E000E1C06000DAC8BF000004A1000140700033
:1025F000C1468000E1C0600081C040000014A1001D
:1026000001407000A192200091407800E1C060007C
:10261000320020008208DD000034A100014070007B
:10262000DAE8B7000244800013448000CC18DD00D3
:102630004411DE0002817000C419DE001100200088
:10264000442D2000840F5100E08F590048003E00C7
:10265000220020008208DD000024A100014070005B
:102660000192200091407800E1C06000420020000B
:102670008208DD000044A10001407000DAE8B700E4
:10268000C0438000D14380004D09DD004300DE00DF
:1026900000007100C308DE00DEE8B7004800DE007D
:1026A000DFE8B7006044800071448000CD09DD00A0
:1026B0004300DE0000807100C308DE00E0E8B700E0
:1026C0004800DE00E1E8B70010C0B3000B040700CB
:1026D000E04F500057003A000000060000004000A4
:1026E000E1CF2900E1007800A3002000801F7800DE
:1026F000110009008300D800800078004F007800A6
:1027000072FF370020448000314480008100D100F6
:102710000080D300343020000489B9000400B800E0
:1027200081004100823E2000030020009404070045
:10273000B8E8B7004800DE00B9E8B7000040EB0099
:10274000EE030700E04F50009DFF320030003700DD
:10275000704680004400DE00313020000100B800E7
:102760004206200003002000850407006EFF3700AA
:10277000C1912000914078008180FB008100EA0037
:10278000CF08DE00220020008208DD000024A10026
:10279000014070000192200091407800E1C060008B
:1027A000420020008208DD000044A10001407000CA
:1027B000DAE8B700C0438000D14380004D09DD0056
:1027C0004300DE0000007100C308DE00DEE8B70051
:1027D0004800DE00DFE8B7006044800071448000FC
:1027E000CD09DD004300DE0000807100C308DE007B
:1027F000E0E8B7004800DE00E1E8B70010C0B30031
:10280000BE030700E04F5000B3FF3200090037005D
:1028100000702000E00E07008042EB0084C0B3008F
:10282000218B20000081EB008081EB00DB0307009F
:1028300063FF370020702000D70E07008042EB00B6
:1028400084C0B300A18D20000081EB008081EB00EB
:10285000D20337000140780023FF3700BAC8BF0019
:102860008000D100E1806000B01680000000A1006F
:1028700001007000B01688000000060060C0B300C0
:10288000FEE8B70010C0B300FFE8B70050C0B300C7
:1028900000E9B7000169EF0010202000BE0E07001C
:1028A0008042EB0044C0B300E18F20000081EB00C8
:1028B0008081EB00B9033700A1942000500C370051
:1028C0008080EB00000420000F0F0700E10F4000A4
:1028D00081FF3A00FFFF370064016000E1168000CD
:1028E0000120A10082807000E11688001100200004
:1028F00021478800314788008000D100E1806000D6
:10290000B01680000000A10001007000B016880021
:10291000000006005469EF001AC9BF008040E800BB
:102920008000FD001AE9B7008000FD000080FB0078
:102930000100200061005000E0805800E40F5000CA
:10294000E08F58007900360000148000010020005C
:10295000604288007142880080438000914380007B
:1029600082438000934380000414800004004000F0
:10297000E08048004D1ADD004311DE0002017200C4
:10298000C319DE0002005000838058008043880095
:102990009143880010C0B3001AE9B700200020005E
:1029A00050158800004480001144800002448000DB
:1029B000134480002414800004004000E08048009C
:1029C0004C1ADD004411DE0002017200C419DE0061
:1029D00002005000838058000044880011448800A1
:1029E0002044800031448000224480003344800031
:1029F0003414800004004000E08048008301D100CE
:102A00000281D300020050008380580020448800D7
:102A10003144880071468000010078008602B400CD
:102A200000017800C408DE000100510070468800F3
:102A3000A0438000B14380004D09DD004300DE006B
:102A400000007100C308DE00E0C2AB002E003200BF
:102A500000004000E14F2A0061007800E10F2000F3
:102A6000810F50001D003C00E00F500018003D0099
:102A7000A0438000B14380004D0ADD004300DE002A
:102A800000007200C308DE00E0C2AB002D0032007F
:102A900000004000E14F2A0061007800E10F2000B3
:102AA000810F500003003C00E00F50002E003D005D
:102AB0001D69EF00DC42AB000C003200DA82AB0093
:102AC0000A003A0010C0B30020E9B7000000060079
:102AD000A1052000810F5000E5FF340010C0B300B5
:102AE0001DE9B700DC42AB00F4FF3A00DC62AB004A
:102AF000F6FF3200DAA2AB00F4FF3A0010C0B300D8
:102B000020E9B700F1FF370000004000E1CF2900C5
:102B100061007800A2002000811F780011000900E8
:102B20000200D800CF007800CCFF37000060010021
:102B3000280037003D00370052003700670037009B
:102B40000E00370000004000E1CF2900610078004E
:102B5000A2002000811F7800110009000200D800A7
:102B6000CF007800CDFF370001042000810F500016
:102B7000D0FF3C001D69EF00CEFF3700001480003D
:102B80000100200060438800714388008044800079
:102B900091448000824480009344800004148000AB
:102BA00004004000E08048004D1ADD004311DE00C3
:102BB00002017200C319DE00020050008380580039
:102BC000804488009144880010002000501588003F
:102BD00074FF37000014800001002000804288004C
:102BE00091428800A0438000B1438000A24380004E
:102BF000B34380000414800004004000E0804800DB
:102C00004D1ADD004311DE0002017200C319DE001F
:102C10000200500083805800A0438800B143880020
:102C200040002000501588005EFF3700001480002F
:102C300001002000A0428800B1428800C04380000B
:102C4000D1438000C2438000D3438000041480003D
:102C500004004000E08048004D1ADD004311DE0012
:102C600002017200C319DE00020050008380580088
:102C7000C0438800D143880000042000501588001C
:102C800048FF370000148000010020002043880026
:102C90003143880040448000514480004244800019
:102CA000534480000414800004004000E080480089
:102CB0004D1ADD004311DE0002017200C319DE006F
:102CC000020050008380580040448800514488002E
:102CD000000820005015880032FF370000148000E3
:102CE0000100200040438800514388006044800078
:102CF00071448000624480007344800004148000AA
:102D000004004000E08048004D1ADD004311DE0061
:102D100002017200C319DE000200500083805800D7
:102D2000604488007144880000102000501588001D
:102D30001CFF37000119200010002000F20D0700D1
:102D4000404088004106200020002000EE0D0700D2
:102D5000504088000159260030002000EA0D07008D
:102D6000704088008157200040002000E60D0700D9
:102D700080408800B106200050002000E20D0700CE
:102D800090408800F1FF270060002000DE0D070062
:102D9000A0408800018F2D0070002000DA0D070090
:102DA000B040880041A3230080002000D60D07001A
:102DB000C0408800C15D200090002000D20D0700B7
:102DC000D040880081382100A0002000CE0D0700EF
:102DD000E040880021032000B0002000CA0D070059
:102DE000F0408800F1FF2700C0002000C60D07005A
:102DF0000041880001322000D0002000C20D0700F1
:102E00001041880081BB2000E0002000BE0D0700BB
:102E100020418800B1042000F0002000BA0D070016
:102E200030418800A100200000012000B60D0700FD
:102E3000404188001100200010012000B20D070061
:102E4000504188008000EB0020012000AE0D0700FB
:102E500060418800A103200030012000AA0D070076
:102E60008000EB00530D0700C1122000400120003C
:102E7000A50D07006040880050012000B20D07003A
:102E80002040880021408000703E2000808F50004C
:102E90001600360021408000D012B000808F500014
:102EA00012003E0060012000A70D0700304088009E
:102EB0003140800070702000808F50000400360088
:102EC000314080009025B000808F50000400360013
:102ED000D1872000600120008B0D07003040880062
:102EE000A15A25000000EB00870D3700B1452000F6
:102EF00050012000840D070020408800E9FF3700C2
:102F0000E0C2AB000900320000004000E14F2A009F
:102F100061007800E10F2000810F50000C003C00A0
:102F2000E00F50000C003D000000050000004000D4
:102F3000E1CF290061007800A20020001100090003
:102F40000200D800E10F2000810F5000F4FF340090
:102F500001007800000006000000060082902000BA
:102F600012417800204480003144800080027800C3
:102F70008281FB0083814100248C200000B2790013
:102F800051468000E08F5000130032001046800050
:102F900080804000204680008080400030468000D5
:102FA00000804000434680000300400053002000A2
:102FB000811F7800110009000380D800CF0078003D
:102FC000904688000080520010003300304888008E
:102FD000FD0F5000060034000240E80008E9B70089
:102FE000E44F5000010036000869EF0000000600C1
:102FF0001C69EF00D828EF0010C0B3001FE9B7002C
:103000003000200030498800F3FF37000000EA005C
:1030100030488800FD0F5000EFFF3C00F4FF370000
:1030200020478000E00F500009003A00314780003F
:10303000E08F50000E003A0030498000E10F500050
:10304000080034000000E900304988000000060054
:103050000000E9002047880030498000E10F50005F
:10306000F8FF3C00E10F50000A00320000000600AB
:10307000A28B20001241780068016100E1168000F7
:103080000130A10082807000E1168800304788007E
:10309000E9FF37002629EF00B0468000E00F50001E
:1030A000F2FF3A0020448000314480008100D100CA
:1030B0000080D300B0468800000006001000200009
:1030C000204788003047880000000600401F20008D
:1030D0006046880010C0B3001CE9B700000006007D
:1030E000F8874700889FBE008A1F78008E1F7800EF
:1030F000000578007E875700E80120006902200063
:1031000008007800100D0700001F78000804E80090
:10311000890F5400FAFF3A00080078000A0D0700F2
:103120008000780091BF9F0070022000060D07000C
:1031300080007800A1BF9F0060002000B0BF9F000A
:103140000E0078000F077800EE01B1000A000900B8
:103150003E1D78006A01B100000778000A0078007F
:103160004F0778004F0578004F04BE008F01B10073
:10317000000006005110200060022000E20C370021
:103180001600FA00889FBE008A9FBE0070002000D3
:10319000704188003028EF003228EF007E80570011
:1031A000CFFF0700808E20008E0078000F07780088
:1031B000EE01B1000A0009003E187800010778000E
:1031C0000000EB00E00C0700A15A2500810F500021
:1031D00004003A0050102000C1478000808F50004A
:1031E00002003200D3FE0700E2FF070010002000BB
:1031F000D50C07004040880020002000D20C0700BA
:103200005040880040012000CF0C0700604088003B
:1032100030002000CC0C07007040880040002000E7
:10322000C90C07008040880050002000C60C070031
:103230009040880060002000C30C0700A040880078
:1032400070002000C00C0700B04088008000200003
:10325000BD0C0700C040880090002000BA0C070099
:10326000D0408800A0002000B70C0700E040880094
:10327000B0002000B40C0700F0408800C00020001F
:10328000B10C070000418800D0002000AE0C070000
:1032900010418800E0002000AB0C070020418800AE
:1032A000F0002000A80C0700304188000001200039
:1032B000A50C07004041880010012000A20C070067
:1032C00050418800200120009F0C070060418800C9
:1032D000500120009C0C0700204088006001200065
:1032E000990C07003040880080012000960C0700F0
:1032F0000005780070012000930C07008A04780014
:103300000004EB0000004400E0804C00A044880072
:10331000B1448800C90C07008D60A900D462A900DF
:1033200058088800302120007008880084E0A90037
:103330008CE0A90013E1A8009CFB0700DA0C070051
:1033400030012000800C07000001780000092D00EA
:1033500031002000490C07008560A9008D60A8009D
:10336000B10C800080FF2F00008060006000B3007F
:10337000B00C8800A10B0700DC02A800DC22A90029
:103380001846880028468800384688004846880045
:103390005846880050C0B300E2E8B700451F20003F
:1033A0006546880010C0B3001CE9B700D602A9002A
:1033B000B4468000E94F2A00E8CF29002649800062
:1033C00005057800AB5A2500E08F520006003A0050
:1033D0001CC9BF000400320010002000C046880055
:1033E000050078001CE9B7002244800033448000C7
:1033F0008301D1000281D3004220DE000000520090
:1034000001002000800F5100818F59005B003100C6
:103410001CC9BF0059003A00D642A900E2A2A80088
:10342000E282A9001FE9B70010C0B3002AE9B70083
:1034300022448000334480008301D1000281D30004
:103440004320DE000000520001002000800F5100E8
:10345000818F5900070036006A46880010C0B3000B
:103460001CE9B7002A69EF00E2A2A800E282A800E6
:103470008A027800A0438000B1438000CD09DD00BE
:103480004300DE0000807100C308DE00E0C2AB0034
:10349000530032000000400069007800E10F200076
:1034A000810F50000F003C00E00F50000A003D006B
:1034B00054C9BF0010003A00624580007345800087
:1034C00061004100E08049000060FE006045880026
:1034D00071458800BCFF3700D1022000810F5000E9
:1034E000F3FF3400E00F5300F1FF3A00D602A800CA
:1034F00054C9BF00F0FF3200E08F520002003200DA
:103500008502E90065468800E00F530002003200A2
:103510000603E90026498800FEFC0700B10B0700FE
:1035200094FB0700BAC8BF006C40600001003A007D
:103530003028EF00B1C8BF008040E8008000FD00E7
:10354000B1E8B7008000FD00E94F50002C003E00BC
:10355000624580007345800061004100E0804900C1
:1035600065468000B4468000264980000060FE0069
:10357000604588007145880093FF37002044800033
:10358000314480008100D1000080D300823E2000C1
:10359000820F5000E08F58004A003600E2A2A800D7
:1035A000E282A9001000200080418800DC42A900CE
:1035B000DC62A9002AC9BF00E14F50009CFF320025
:1035C000A0438000B1438000CD09DD004300DE0050
:1035D00000807100C308DE00E0C2AB00ADFF3A001E
:1035E0000000400068007800A2002000811F7800E1
:1035F000110009000200D800CF007800A7FF3700B3
:1036000087FE0700B168EF001CC9BF00040032004C
:1036100065468000301F2000808F52002000360059
:10362000B0C8BF008040E8008000FD00B0E8B700EF
:103630008000FD00E94F5000C5FF3600B068EF0084
:103640000000EB00C00B07008B0F500001003200A0
:10365000B8FD07006045800071458000C0418800CA
:10366000D1418800A2418000B34180006101410046
:10367000E0814900A2418800B34188001000200089
:103680000100200065468000B44680002649800085
:103690000060FE0060458800714588004AFF3700E1
:1036A0002EFE0700B0C8BF008040E8008000FD008B
:1036B000B0E8B7008000FD00E94F5000A4FF3600DD
:1036C000DEFF37001FC9BF0004003A002AC9BF004F
:1036D000E14F5000BAFF3A0055FF37002AC9BF003A
:1036E000B5FF3A00D642A800E2A2A900E282A800F3
:1036F00060FF37000040DA000000FE0080407800E4
:10370000E1CF50000B003200E2CF50000E0032003B
:103710000040EB00E0CF500011003A00721B800027
:103720006801610010C0B3000D0032000140780054
:1037300000000600F21A8000680161000140780074
:103740000700320004003700711A8000E880600032
:1037500010C0B300020032000040EB000000060081
:10376000000006008001EB008180FB0008003700AC
:10377000E04F51000300320064372000E14F510058
:10378000010032006438200064F079008301E80011
:10379000818F5100F6FF350000000600401BDE005F
:1037A00007002000E1CF520008003200E2CF5200B3
:1037B0000A003200001B8800161B8800221B8800AC
:1037C0000000EB000481FB0011003700801A880024
:1037D000961A8800A21A8800F9FF3700001A88009C
:1037E000161A8800221A8800F5FF3700633520007A
:1037F000E1CF52000400320063362000E2CF5200D5
:1038000001003A0063342000E17178000000E80014
:10381000820F5000F5FF35006F426200E1CF520089
:1038200003003200E2CF520013003A0009003700D3
:103830006F0062004300DD00A41A800071F82F00C1
:103840000102620000027200A41A88005E63A800F0
:10385000000006006F0062004300DD00241A8000B3
:1038600071F82F000102620000027200241A880021
:103870004E63A800000006006F0062004300DD00F8
:10388000241B800071F82F00010262000002720008
:10389000241B88006E63A80000000600889FBE00FD
:1038A000401CDE00090020000002FB00CFA2DE0069
:1038B000E50F5200E08F5A001E003E000460010038
:1038C00005003700070037000A0037000D003700F9
:1038D00010003700130037000118880018188800FE
:1038E00016003700411888005818880062188800B0
:1038F000130037008118880098188800A2188800E3
:103900000F003700C1188800D8188800E218880016
:103910000B00370001198800181988002219880047
:10392000070037004119880058198800621988007B
:103930000300370001188800181888002218880032
:103940004F04BE0000000600401ADE000500200003
:10395000E04F500006003200E14F500004003A00F2
:10396000C1198800D4198800E219880000000600F7
:103970008119880094198800A219880000000600A7
:10398000839F68000100E00002003D00600010001D
:10399000E08018000300E00002003D00600111001B
:1039A000E0811900050007004F00E00002003B0025
:1039B00060001000E0801800000006006022B800DF
:1039C000060220000000D0008180D2000482D200D4
:1039D0008582D2000000A0000202520083825A00B9
:1039E000030031000202420083824A000000A1006D
:1039F0000603E900F3FF3A0000000600201C000067
:103A0000C819000070170000AD140000B40F0000CA
:103A1000950D00004D0C0000670B0000BA0A000075
:103A2000300A0000BE0900005E0900000A0900001B
:103A3000C2080000810800004708000013080000C9
:103A4000E3070000B70700008E07000069070000C9
:103A5000460700002507000006070000E9060000F1
:103A6000CE060000B40600009C060000840600009C
:103A70006E060000590600004506000031060000F1
:103A80001E0600000C060000FB050000EB05000010
:103A9000DB050000CB050000BC050000AE05000002
:103AA000A0050000920500008505000078050000D3
:103AB0006C0500005F05000054050000480500008B
:103AC0003D05000032050000280500001D0500002E
:103AD000130500000905000000050000F6040000C1
:103AE000ED040000E4040000DB040000D304000047
:103AF000CA040000C2040000BA040000B2040000BE
:103B0000AA040000A20400009B040000930400002B
:103B10008C040000850400007E040000770400008F
:103B2000700400006A040000630400005D040000EB
:103B300056040000500400004A0400004404000041
:103B40003E04000038040000320400002C04000091
:103B500027040000210400001C04000016040000DB
:103B6000110400000C040000060400000104000021
:103B7000FC030000F7030000F2030000ED03000067
:103B8000E9030000E4030000DF030000DA030000A3
:103B9000D6030000D1030000CD030000C8030000DD
:103BA000C4030000C0030000BB030000B703000013
:103BB000B3030000AF030000AB030000A603000046
:103BC000A20300009E0300009A0300009703000078
:103BD000930300008F0300008B03000087030000A5
:103BE00083030000800300007C03000078030000D2
:103BF00075030000710300006E0300006A030000FB
:103C00006703000063030000600300005D03000021
:103C10005903000056030000530300004F03000047
:103C20004C0300004903000046030000420300006B
:103C30003F0300003C03000039030000360300008E
:103C400033030000300300002D0300002A030000AE
:103C50002703000024030000210300001E030000CE
:103C60001B030000180300001603000013030000EC
:103C7000100300000D0300000A0300000803000009
:103C8000050300000203000000030000FD02000025
:103C9000FA020000F8020000F5020000F202000043
:103CA000F0020000ED020000EB020000E80200005C
:103CB000E6020000E3020000E1020000DE02000074
:103CC000DC020000D9020000D7020000D40200008C
:103CD000D2020000D0020000CD020000CB020000A2
:103CE000C9020000C6020000C4020000C2020000B7
:103CF000BF020000BD020000BB020000B8020000CD
:103D0000B6020000B4020000B2020000B0020000DF
:103D1000AD020000AB020000A9020000A7020000F3
:103D2000A5020000A3020000A00200009E02000005
:103D30009C0200009A020000980200009602000017
:103D40009402000092020000900200008E02000027
:103D50008C0200008A020000880200008602000037
:103D60008402000082020000800200007E02000047
:103D70007C0200007A020000780200007602000057
:103D80007402000072020000700200006E02000067
:103D90006C0200006A020000690200006702000075
:103DA0006502000063020000610200005F02000083
:103DB0005E0200005C0200005A020000580200008F
:103DC000560200005402000053020000510200009D
:103DD0004F0200004D0200004C0200004A020000A9
:103DE00048020000460200004502000043020000B5
:103DF00041020000400200003E0200003C020000C0
:103E00003A020000390200003702000035020000CB
:103E10003402000032020000300200002F020000D5
:103E20002D0200002B0200002A02000028020000E0
:103E300027020000250200002302000022020000E9
:103E4000200200001F0200001D0200001B020000F3
:103E50001A020000180200001702000015020000FC
:103E60001402000012020000100200000F02000005
:103E70000D0200000C0200000A020000090200000E
:103E80000702000006020000040200000302000016
:103E90000102000000020000FE010000FD01000020
:103EA000FB010000FA010000F8010000F70100002A
:103EB000F5010000F4010000F2010000F101000032
:103EC000F0010000EE010000ED010000EB01000038
:103ED000EA010000E8010000E7010000E501000040
:103EE000E4010000E3010000E1010000E001000046
:103EF000DE010000DD010000DC010000DA0100004D
:103F0000D9010000D7010000D6010000D501000052
:103F1000D3010000D2010000D1010000CF01000058
:103F2000CE010000CC010000CB010000CA0100005E
:103F3000C8010000C7010000C6010000C401000064
:103F4000C3010000C2010000C0010000BF01000069
:103F5000BE010000BC010000BB010000BA0100006E
:103F6000B8010000B7010000B6010000B501000073
:103F7000B3010000B2010000B1010000AF01000078
:103F8000AE010000AD010000AC010000AA0100007C
:103F9000A9010000A8010000A6010000A501000081
:103FA000A4010000A3010000A1010000A001000085
:103FB0009F0100009E0100009C0100009B01000089
:103FC0009A0100009901000097010000960100008D
:103FD0009501000094010000920100009101000091
:103FE000900100008F0100008E0100008C01000094
:103FF0008B0100008A010000890100008701000098
:10400000860100008501000084010000830100009A
:1040100081010000800100007F0100007E0100009E
:104020007D0100007B0100007A01000079010000A1
:1040300078010000770100007601000074010000A3
:1040400073010000720100007101000070010000A6
:104050006F0100006D0100006C0100006B010000A9
:104060006A010000690100006801000066010000AB
:1040700065010000640100006301000062010000AE
:1040800061010000600100005E0100005D010000B0
:104090005C0100005B0100005A01000059010000B2
:1040A00058010000560100005501000054010000B5
:1040B00053010000520100005101000050010000B6
:1040C0004F0100004D0100004C0100004B010000B9
:1040D0004A010000490100004801000047010000BA
:1040E00046010000450100004301000042010000BC
:1040F00041010000400100003F0100003E010000BE
:104100003D0100003C0100003B0100003A010000BD
:1041100039010000370100003601000035010000C0
:1041200034010000330100003201000031010000C1
:10413000300100002F0100002E0100002D010000C1
:104140002C0100002A0100002901000028010000C4
:1041500027010000260100002501000024010000C5
:1041600023010000220100002101000020010000C5
:104170001F0100001E0100001D0100001B010000C6
:104180001A010000190100001801000017010000C9
:1041900016010000150100001401000013010000C9
:1041A0001201000011010000100100000F010000C9
:1041B0000E0100000D0100000C0100000B010000C9
:1041C0000A010000090100000801000006010000CA
:1041D00005010000040100000301000002010000CD
:1041E0000101000000010000FF000000FE000000CF
:1041F000FD000000FC000000FB000000FA000000D1
:10420000F9000000F8000000F7000000F6000000D0
:10421000F5000000F4000000F3000000F2000000D0
:10422000F1000000F0000000EF000000EE000000D0
:10423000ED000000EC000000EB000000EA000000D0
:10424000E9000000E8000000E7000000E6000000D0
:10425000E5000000E3000000E2000000E1000000D3
:10426000E0000000DF000000DE000000DD000000D4
:10427000DC000000DB000000DA000000D9000000D4
:10428000D8000000D7000000D6000000D5000000D4
:10429000D4000000D3000000D2000000D1000000D4
:1042A000D0000000CF000000CE000000CD000000D4
:1042B000CC000000CB000000CA000000C9000000D4
:1042C000C8000000C7000000C6000000C5000000D4
:1042D000C4000000C3000000C2000000C1000000D4
:1042E000C0000000BF000000BE000000BD000000D4
:1042F000BC000000BB000000BA000000B9000000D4
:10430000B8000000B7000000B6000000B5000000D3
:10431000B4000000B3000000B2000000B1000000D3
:10432000B0000000AF000000AE000000AD000000D3
:10433000AC000000AB000000AA000000A9000000D3
:10434000A8000000A7000000A6000000A5000000D3
:10435000A4000000A3000000A2000000A1000000D3
:10436000A00000009F0000009E0000009D000000D3
:104370009C0000009B0000009A00000099000000D3
:1043800098000000970000009600000095000000D3
:1043900094000000930000009200000091000000D3
:1043A000900000008F0000008E0000008D000000D3
:1043B0008C0000008B0000008A00000089000000D3
:1043C00088000000870000008600000085000000D3
:1043D00084000000830000008200000081000000D3
:1043E000800000007F0000007E0000007D000000D3
:1043F0007C0000007B0000007A00000079000000D3
:1044000078000000770000007600000075000000D2
:1044100074000000730000007200000071000000D2
:10442000700000006F0000006E0000006D000000D2
:104430006C0000006B0000006A00000069000000D2
:1044400068000000670000006600000065000000D2
:1044500064000000630000006200000061000000D2
:10446000600000005F0000005E0000005D000000D2
:104470005C0000005B0000005A00000058000000D3
:1044800057000000560000005500000054000000D6
:1044900053000000520000005100000050000000D6
:1044A0004F0000004E0000004D0000004C000000D6
:1044B0004B0000004A0000004900000048000000D6
:1044C00047000000460000004500000044000000D6
:1044D00043000000420000004100000040000000D6
:1044E0003F0000003E0000003D0000003C000000D6
:1044F0003A000000390000003800000037000000DA
:1045000036000000350000003400000033000000D9
:104510003200000031000000300000002F000000D9
:104520002E0000002D0000002C0000002B000000D9
:104530002A000000290000002700000026000000DB
:1045400025000000240000002300000022000000DD
:1045500021000000200000001F0000001E000000DD
:104560001D0000001C0000001B0000001A000000DD
:1045700018000000170000001600000015000000E1
:1045800014000000130000001200000011000000E1
:10459000100000000F0000000E0000000C000000E2
:1045A0000B0000000A0000000900000008000000E5
:1045B00007000000060000000500000004000000E5
:1045C000020000000100000000000000FFFF0000EA
:1045D000FEFF0000FDFF0000FCFF0000FBFF0000ED
:1045E000F9FF0000F8FF0000F7FF0000F6FF0000F1
:1045F000F5FF0000F4FF0000F3FF0000F2FF0000F1
:10460000F0FF0000EFFF0000EEFF0000EDFF0000F4
:10461000ECFF0000EBFF0000E9FF0000E8FF0000F6
:10462000E7FF0000E6FF0000E5FF0000E4FF0000F8
:10463000E2FF0000E1FF0000E0FF0000DFFF0000FC
:10464000DEFF0000DDFF0000DBFF0000DAFF0000FE
:10465000D9FF0000D8FF0000D7FF0000D5FF000001
:10466000D4FF0000D3FF0000D2FF0000D1FF000004
:10467000CFFF0000CEFF0000CDFF0000CCFF000008
:10468000CBFF0000C9FF0000C8FF0000C7FF00000B
:10469000C6FF0000C4FF0000C3FF0000C2FF00000F
:1046A000C1FF0000BFFF0000BEFF0000BDFF000013
:1046B000BCFF0000BAFF0000B9FF0000B8FF000017
:1046C000B7FF0000B5FF0000B4FF0000B3FF00001B
:1046D000B1FF0000B0FF0000AFFF0000AEFF000020
:1046E000ACFF0000ABFF0000AAFF0000A8FF000025
:1046F000A7FF0000A6FF0000A4FF0000A3FF00002A
:10470000A2FF0000A0FF00009FFF00009EFF00002E
:104710009CFF00009BFF00009AFF000098FF000034
:1047200097FF000096FF000094FF000093FF000039
:1047300091FF000090FF00008FFF00008DFF000040
:104740008CFF00008AFF000089FF000088FF000046
:1047500086FF000085FF000083FF000082FF00004D
:1047600080FF00007FFF00007EFF00007CFF000054
:104770007BFF000079FF000078FF000076FF00005B
:1047800075FF000073FF000072FF000070FF000063
:104790006FFF00006DFF00006CFF00006AFF00006B
:1047A00069FF000067FF000066FF000064FF000073
:1047B00062FF000061FF00005FFF00005EFF00007D
:1047C0005CFF00005AFF000059FF000057FF000087
:1047D00056FF000054FF000052FF000051FF000090
:1047E0004FFF00004DFF00004CFF00004AFF00009B
:1047F00048FF000047FF000045FF000043FF0000A6
:1048000041FF000040FF00003EFF00003CFF0000B1
:104810003AFF000039FF000037FF000035FF0000BD
:1048200033FF000031FF000030FF00002EFF0000CA
:104830002CFF00002AFF000028FF000026FF0000D8
:1048400024FF000023FF000021FF00001FFF0000E5
:104850001DFF00001BFF000019FF000017FF0000F4
:1048600015FF000013FF000011FF00000FFF000004
:104870000DFF00000BFF000008FF000006FF000016
:1048800004FF000002FF000000FF0000FEFE000029
:10489000FCFE0000F9FE0000F7FE0000F5FE00003F
:1048A000F3FE0000F0FE0000EEFE0000ECFE000053
:1048B000E9FE0000E7FE0000E5FE0000E2FE000069
:1048C000E0FE0000DDFE0000DBFE0000D8FE000080
:1048D000D6FE0000D3FE0000D0FE0000CEFE000099
:1048E000CBFE0000C9FE0000C6FE0000C3FE0000B3
:1048F000C0FE0000BDFE0000BBFE0000B8FE0000D0
:10490000B5FE0000B2FE0000AFFE0000ACFE0000ED
:10491000A9FE0000A6FE0000A3FE00009FFE00000E
:104920009CFE000099FE000095FE000092FE000033
:104930008FFE00008BFE000088FE000084FE000059
:1049400080FE00007CFE000079FE000075FE000085
:1049500071FE00006DFE000069FE000064FE0000B4
:1049600060FE00005CFE000057FE000053FE0000E9
:104970004EFE000049FE000044FE00003FFE000025
:104980003AFE000035FE00002FFE000029FE000068
:1049900024FE00001EFE000017FE000011FE0000B5
:1049A0000AFE000003FE0000FCFD0000F4FD000014
:1049B000ECFD0000E4FD0000DBFD0000D2FD000086
:1049C000C8FD0000BEFD0000B3FD0000A7FD000013
:1049D0009AFD00008CFD00007DFD00006BFD0000D5
:1049E00058FD000041FD000026FD000005FD00000F
:1049F000D7FC00008EFC000040FC0000A40000007A
:104A0000A4000000A4000000A4000000A400000016
:104A1000A4000000A4000000A4000000A400000006
:104A2000A4000000A4000000A4000000A4000000F6
:104A3000A4000000A4000000A4000000A4000000E6
:104A4000A4000000A4000000A4000000A4000000D6
:104A5000A4000000A4000000A4000000A4000000C6
:104A6000A4000000A4000000A4000000A4000000B6
:104A7000A4000000A4000000A4000000A4000000A6
:104A8000A4000000A4000000A4000000A400000096
:104A9000A3000000A2000000A10000009F00000091
:104AA0009E0000009D0000009C0000009B00000094
:104AB0009A00000099000000980000009700000094
:104AC0009600000095000000940000009300000094
:104AD0009200000091000000900000009000000093
:104AE0008F0000008E0000008D0000008C00000090
:104AF0008B0000008B0000008A000000890000008D
:104B00008800000088000000870000008600000088
:104B10008500000085000000840000008300000084
:104B2000830000008200000081000000810000007E
:104B300080000000800000007F0000007E00000078
:104B40007E0000007D0000007D0000007C00000071
:104B50007C0000007B0000007B0000007A00000069
:104B60007900000079000000780000007800000063
:104B7000770000007700000076000000760000005B
:104B800075000000B1000000750000007400000016
:104B90007400000073000000730000007200000049
:104BA0007200000071000000710000007100000040
:104BB00070000000700000006F0000006F00000037
:104BC0006E0000006E0000006E0000006D0000002E
:104BD0006D0000006C0000006C0000006C00000024
:104BE0006B0000006B0000006B0000006A0000001A
:104BF0006A00000069000000690000006900000010
:104C00006800000068000000680000006700000005
:104C100067000000670000006600000066000000FA
:104C200066000000650000006500000065000000EF
:104C300064000000640000006400000063000000E5
:104C400063000000630000006200000062000000DA
:104C500062000000610000006100000061000000CF
:104C600061000000600000006000000060000000C3
:104C70005F0000005F0000005F0000005E000000B9
:104C80005E0000005E0000005E0000005D000000AD
:104C90005D0000005D0000005C0000005C000000A2
:104CA0005C0000005C0000005B0000005B00000096
:104CB0005B0000005B0000005A0000005A0000008A
:104CC0005A0000005900000059000000590000007F
:104CD0005900000058000000580000005800000073
:104CE0005800000057000000570000005700000067
:104CF000570000005600000056000000560000005B
:104D0000560000005500000055000000550000004E
:104D10005500000054000000540000005400000042
:104D20005400000053000000530000005300000036
:104D30005300000053000000520000005200000029
:104D4000520000005200000051000000510000001D
:104D50005100000051000000500000005000000011
:104D60005000000050000000500000004F00000004
:104D70004F0000004F0000004F0000004E000000F8
:104D80004E0000004E0000004E0000004E000000EB
:104D90004D0000004D0000004D0000004D000000DF
:104DA0004D0000004C0000004C0000004C000000D2
:104DB0004C0000004B0000004B0000004B000000C6
:104DC0004B0000004B0000004A0000004A000000B9
:104DD0004A0000004A0000004A00000049000000AC
:104DE000490000004900000049000000490000009F
:104DF0004800000048000000480000004800000093
:104E00004800000047000000470000004700000085
:104E10004700000047000000460000004600000078
:104E2000460000004600000046000000450000006B
:104E3000450000004500000045000000450000005E
:104E40004400000044000000440000004400000052
:104E50004400000043000000430000004300000045
:104E60004300000043000000420000004200000038
:104E7000420000004200000042000000410000002B
:104E8000410000004100000041000000410000001E
:104E90004100000040000000400000004000000011
:104EA00040000000400000003F0000003F00000004
:104EB0003F0000003F0000003F0000003E000000F7
:104EC0003E0000003E0000003E0000003E000000EA
:104ED0003E0000003D0000003D0000003D000000DD
:104EE0003D0000003D0000003C0000003C000000D0
:104EF0003C0000003C0000003C0000003C000000C2
:104F00003B0000003B0000003B0000003B000000B5
:104F10003B0000003A0000003A0000003A000000A8
:104F20003A0000003A0000003A000000390000009A
:104F3000390000003900000039000000390000008D
:104F40003800000038000000380000003800000081
:104F50003800000038000000370000003700000073
:104F60003700000037000000370000003600000066
:104F70003600000036000000360000003600000059
:104F8000360000003500000035000000350000004C
:104F9000350000003500000034000000340000003F
:104FA0003400000034000000340000003400000031
:104FB0003300000033000000330000003300000025
:104FC0003300000032000000320000003200000018
:104FD000320000003200000032000000310000000A
:104FE00031000000310000003100000031000000FD
:104FF00030000000300000003000000030000000F1
:1050000030000000300000002F0000002F000000E2
:105010002F0000002F0000002F0000002E000000D5
:105020002E0000002E0000002E0000002E000000C8
:105030002E0000002D0000002D0000002D000000BB
:105040002D0000002D0000002C0000002C000000AE
:105050002C0000002C0000002C0000002B000000A1
:105060002B0000002B0000002B0000002B00000094
:105070002B0000002A0000002A0000002A00000087
:105080002A0000002A00000029000000290000007A
:10509000290000002900000029000000280000006D
:1050A0002800000028000000280000002800000060
:1050B0002800000027000000270000002700000053
:1050C0002700000027000000260000002600000046
:1050D0002600000026000000260000002500000039
:1050E000250000002500000025000000250000002C
:1050F0002400000024000000240000002400000020
:105100002400000023000000230000002300000012
:105110002300000023000000220000002200000005
:1051200022000000220000002100000021000000F9
:1051300021000000210000002100000020000000EC
:1051400020000000200000002000000020000000DF
:105150001F0000001F0000001F0000001F000000D3
:105160001E0000001E0000001E0000001E000000C7
:105170001E0000001D0000001D0000001D000000BA
:105180001D0000001C0000001C0000001C000000AE
:105190001C0000001C0000001B0000001B000000A1
:1051A0001B0000001B0000001A0000001A00000095
:1051B0001A0000001A000000190000001900000089
:1051C000190000001900000018000000180000007D
:1051D0001800000018000000170000001700000071
:1051E0001700000017000000160000001600000065
:1051F0001600000016000000150000001500000059
:10520000150000001500000014000000140000004C
:105210001400000014000000130000001300000040
:105220001300000012000000120000001200000035
:105230001200000011000000110000001100000029
:105240001000000010000000100000000F0000001F
:105250000F0000000F0000000E0000000E00000014
:105260000E0000000D0000000D0000000D00000009
:105270000C0000000C0000000C0000000B000000FF
:105280000B0000000B0000000A0000000A000000F4
:105290000A000000090000000900000009000000E9
:1052A00008000000080000000700000007000000E0
:1052B00007000000060000000600000005000000D6
:1052C00005000000040000000400000003000000CE
:1052D00003000000030000000200000002000000C4
:1052E00001000000010000000000000000000000BC
:1052F000FFFF0000FEFF0000FEFF0000FDFF0000BA
:10530000FDFF0000FCFF0000FBFF0000FBFF0000B2
:10531000FAFF0000F9FF0000F9FF0000F8FF0000AD
:10532000F7FF0000F6FF0000F6FF0000F5FF0000A9
:10533000F4FF0000F3FF0000F2FF0000F1FF0000A7
:10534000F0FF0000EFFF0000EEFF0000EDFF0000A7
:10535000EBFF0000EAFF0000E8FF0000E7FF0000AD
:10536000E5FF0000E3FF0000DFFF0000DEFF0000BC
:10537000DEFF0000DEFF0000DEFF0000DEFF0000B9
:10538000DEFF0000DEFF0000DEFF0000DEFF0000A9
:10539000DEFF0000DEFF0000DEFF0000DEFF000099
:1053A000DEFF0000DEFF0000DEFF0000DEFF000089
:105A00000400FA00889FBE008A1F78000004780016
:105A100070C7B300914F100015003200006F2000D6
:105A2000800F540060003200601F2000800F54007F
:105A30003100320030502000800F540078003200D6
:105A400040502000800F54004800320001702000B8
:105A50008100640000602000808F500059003200F7
:105A60004F0578004F04BE000080FA0000000600D9
:105A70001141900065405000804F5100E7FF3A000F
:105A80008184E800B0602000800F540020013200C3
:105A90007D00360010612000800F54008301320029
:105AA000A7003E0063005000800F54002E0132001A
:105AB000B8003E000080E900800F5400570132001A
:105AC0000000E800800F5400D4FF3A001901BE0026
:105AD000E10F4100E08F5900D3FF3E0082007800C3
:105AE000D00020008802070010418800601F2000BD
:105AF000800F5400CFFF3A00E0012000920207001F
:105B0000B0BF9F00F00120008F020700C0BF9F00C0
:105B1000000220008C020700D0BF9F00100220006E
:105B200089020700E0BF9F000040EB00F3F607008A
:105B3000E04F5000CAFF320008007800160207004C
:105B40008042EB0084C0B300EA8057000081EB0084
:105B50008081EB0011F707004F0578004F04BE006D
:105B60000080FA0000000600C1FF3700600220003C
:105B700075020700B0BF9F0070022000720207008C
:105B8000C0BF9F000040EB00DCF60700E04F500074
:105B9000E9FF3A004F0578004F04BE000080FA008C
:105BA00000000600B2FF37006000B800B0BF9F00E1
:105BB000C1BF9F000040EB00D0F60700E04F50004F
:105BC00028003A0008007800F00FB2005E020700DB
:105BD0008004EB00B0BF9F00C9BF9F000940780060
:105BE000C6F60700E04F50009DFF32000800780025
:105BF000E90107008942780084C0B300EA805700B9
:105C00000081EB008081EB00E4F607004F0578008F
:105C10004F04BE000080FA000000060094FF370029
:105C20002002200048020700B0BF9F003002200081
:105C300045020700C0BF9F0040022000420207004B
:105C4000D0BF9F00500220003F020700E0BF9F002E
:105C50000040EB00A9F60700E04F500080FF320043
:105C6000B5FF370008007800CB0107008042EB0049
:105C700084C0B300EA8057000081EB008081EB0014
:105C8000C6F60700CFFF370067005000800F5400B2
:105C9000D900320017003E0063005000800F54000E
:105CA0008000320063003E001010B100800F5400ED
:105CB000A00032000000E800800F540057FF3A00B7
:105CC00099007800200220000F020700A900900030
:105CD000300220000C020700C900900040022000A2
:105CE00009020700E90090005002200006020700A8
:105CF0004DFF370070602000800F5400FD0032001F
:105D00005B003E000080E900800F5400F00032008C
:105D10000000E800800F540040FF3A001901BE0067
:105D2000E10F4100E08F59003FFF3E008200780004
:105D300060002000F4010700A04088003AFF37000F
:105D400040612000800F54009900320020003E0086
:105D50000080E900800F54008C0032000000E80051
:105D6000800F54002DFF3A001901BE0040062000AC
:105D7000800F5100E08F59002BFF3E008200780019
:105D800030012000E00107008000EB0089010700DE
:105D900025FF3700F0602000800F54008D00320096
:105DA0000000E800800F54001CFF3A001901BE00FB
:105DB000E10F4100E08F59001BFF3E008200780098
:105DC00000012000D00107004041880016FF370085
:105DD00060612000800F5400A60032009800390056
:105DE0000000E800800F54000CFF3A001901BE00CB
:105DF000E10F4100E08F59000BFF3E008200780068
:105E000070012000C001070000057800A900900083
:105E100080012000BC010700800178000001EB0038
:105E20000A014100E0814900A2448800B34488008F
:105E3000FDFE370020602000800F5400B6003200C5
:105E40000000E800800F5400F4FE3A001901BE0083
:105E5000E10F4100E08F5900F3FE3E008200780020
:105E600030002000A801070070408800EEFE3700D7
:105E700090602000800F54001C0032001200360099
:105E80001901BE00E10F4100E08F5900E6FE3E001F
:105E900082007800A00020009B010700E0408800FD
:105EA000E1FE37001901BE00E10F4100E08F59000B
:105EB000DDFE3E0082007800100020009201070005
:105EC00040408800D8FE37001901BE00E10F4100B4
:105ED000E08F5900D4FE3E00820078008000200050
:105EE00089010700C0408800CFFE37001901BE00BD
:105EF000E10F4100E08F5900CBFE3E0082007800A8
:105F00009000200080010700D0408800C6FE3700C6
:105F10001901BE00E10F4100E08F5900C2FE3E00B2
:105F200082007800B000200077010700F040880070
:105F3000BDFE370099007800E001200072010700E3
:105F4000A9009000F00120006F010700C900900037
:105F5000000220006C010700E90090001002200000
:105F600069010700B0FE37001901BE00E10F4100D2
:105F7000E08F5900ACFE3E0082007800E000200077
:105F80006101070020418800A7FE37001901BE000B
:105F9000E10F4100E08F5900A3FE3E00820078002F
:105FA0002001200058010700604188009EFE370054
:105FB0001901BE00E10F4100E08F59009AFE3E003A
:105FC00082007800400120004F01070060408800F7
:105FD00095FE37001901BE00E10F4100E08F590026
:105FE00091FE3E0082007800F0002000460107008C
:105FF000304188008CFE37001901BE00E10F4100DE
:10600000E08F590088FE3E008200780040002000AA
:106010003D0107008040880083FE37001901BE0063
:10602000E10F4100E08F59007FFE3E0082007800C2
:10603000C000200034010700004188007AFE3700CC
:106040001901BE000200BE00803EB1000180B10017
:10605000C4122000840F5000E08F580072FE3E00F2
:1060600082007800500120002701070020408800AE
:106070006DFE37001901BE00808F2F00F1FF2F0049
:10608000020040008380480084252000840F5000D7
:10609000E08F580064FE3E0082007800600120001E
:1060A00019010700304088005FFE37001901BE006B
:1060B000E10F4100E08F59005BFE3E008200780056
:1060C00010012000100107005041880056FE3700E3
:1060D0001901BE00E10F4100E08F590052FE3E0061
:1060E00082007800500020000701070090408800DF
:1060F0004DFE37001901BE00E10F4100E08F59004D
:1061000049FE3E008200780070002000FE0007007B
:10611000B040880044FE37001901BE00E10F410085
:10612000E08F590040FE3E008200780020002000F1
:10613000F5000700504088003BFE37009194200096
:106140006881400051587800828F5000FDFF3A006E
:1061500010C0B30000000600889FBE000004780055
:106160008EE3AB0006003A00F11B80000108B2008C
:1061700015003A00014078004F04BE000000060000
:10618000091C8000C34CDD00C54CDE000041EB0063
:1061900081C0B300A094200072F507008EE3A9002F
:1061A000E08F540011003200001C80004300DD002D
:1061B0004500DE00000C780010C0B3004F04BE00A4
:1061C00000000600EEFF3700091C8000C34CDD0014
:1061D000C54CDE0012C0B30081C0B300A094200003
:1061E00060F507007EE3A900EDFF37000940780065
:1061F0004F04BE0000000600E1FF3700881F780052
:10620000DEA2A900811C8000F08F2F0000806000BA
:1062100000A0A000801C880001082000801C8000D5
:10622000000EB200810F5000FCFF3A0064E3A800AA
:106230006503A80091E3A80091A3A9009183A80099
:106240009163A800911C800000FC2F00008060007A
:106250003000B300901C8800911C8000F0F32F00E8
:10626000008060000060A000901C880095C3A90019
:1062700080FF2F009423B600800320009423B700F2
:10628000A01C8000F88F2F00080060000150200043
:1062900001007000A01C880094E3A80094C3A8002B
:1062A0006023A9006003A900300020006E23B7001E
:1062B0006523A9005023A9005003A9005E23B7005D
:1062C0005523A9008EE3A9007EE3A9008E43A80010
:1062D0003003A9003803A9000003A9000803A9009E
:1062E0006011B8008000EB000040EB0096F507005D
:1062F0006011B8008000EB0010C0B30092F50700F9
:106300000081EB008081EB008080EB000040EB001F
:1063100062F507000081EB008081EB008080EB00DC
:1063200010C0B3005DF507000081EB008081EB0039
:106330008080EB0020C0B30058F507000081EB001F
:106340008081EB008080EB0030C0B30053F5070084
:106350000081EB008081EB008080EB0040C0B30047
:106360004EF507000081EB008081EB008080EB00A0
:1063700050C0B30049F507000004FD009023B600AB
:106380000004FD00801C8000000EB200FDFF3A00FA
:106390004F04780000000600C200DD00C10FB2000B
:1063A000027C2000020060004500DD0000807000DB
:1063B00000000600B1FC2F0080804000EA8F5000F2
:1063C00001003600A0032000610880000180B900B0
:1063D00042062000110009000280D800904A88007F
:1063E00000000600E0C2AB0012003A00900C8000F2
:1063F000914A8000810F500005003100900C800010
:1064000000805000E30F50000B003E00910C88000C
:10641000900C8000808F5000060031000100780051
:106420009201B500E30F500009003600D0FF2F00A5
:106430009221B40000000600300020009221B40038
:10644000900C8000808F5000F4FF3900F9FF370076
:10645000910C8800000006000001BE00000420002E
:10646000900C880000402200410F200044F50700F6
:106470000000E9006008880000000600889FBE0058
:1064800002047800031780000304B2001A003A00E7
:106490003308880002042000920C88000001BE002E
:1064A00000402200410F200035F507000000E90000
:1064B00060088800B0FC2F0008004000EA0F500080
:1064C00001003600A80320006008800000C4B90065
:1064D00042062000110009000284D800904A88007A
:1064E0009661A90080FF2F009621B60011E1A80057
:1064F0004F04BE0000000600D662A8004F04BE0094
:1065000000000600FCFF3700841F7800F40720001D
:1065100094018800243B880004C02F004100DD0066
:1065200004004000103B88001200070044002400D3
:10653000043B88000108BB00100007000100780040
:106540004F02780000000600841F7800F407200046
:1065500094018800243B880004C02F00143B88006D
:106560004100DD00040240001400BA004F02780030
:106570000000060044042400043B88001000FC00D6
:1065800054052000343B8800A40A2000343B8800D6
:1065900061E7A800000000000000000061E7AF0014
:1065A000FEFF3700000006000A090000220000007C
:1065B0000200000088139E00002400001301DC008C
