:020000040000FA
:1000000000010400000000009010000090100000AB
:100010009E160000AC1600007E1600009010000036
:100020009010000090100000901000009010000050
:1000300090100000D82400009010000090100000E4
:1000400090100000F01500009010000090100000CB
:1000500090100000EC1400009010000090100000C0
:100060009010000090100000901000009010000010
:10007000901000003E16000090100000901000004C
:1000800090100000901000009010000090100000F0
:1000900090100000901000009010000090100000E0
:1000A00090100000901000009010000090100000D0
:1000B00090100000901000009010000090100000C0
:1000C00090100000901000009010000090100000B0
:1000D00090100000901000009010000090100000A0
:1000E0009010000090100000901000009010000090
:1000F0009010000090100000901000009010000080
:10010000FFFFFF00FFFFFF009010000090100000B5
:100110009E160000AC1600007E1600009010000035
:10012000901000009010000090100000901000004F
:1001300090100000D82400009010000090100000E3
:1001400090100000F01500009010000090100000CA
:1001500090100000EC1400009010000090100000BF
:10016000901000009010000090100000901000000F
:10017000901000003E16000090100000901000004B
:1001800090100000901000009010000090100000EF
:1001900090100000901000009010000090100000DF
:1001A00090100000901000009010000090100000CF
:1001B00090100000901000009010000090100000BF
:1001C00090100000901000009010000090100000AF
:1001D000901000009010000090100000901000009F
:1001E0009010000090100000FFFFFF00FFFFFF00D5
:1001F000FFFFFF00FFFFFF00FFFFFF00FFFFFF000B
:100200006F8820000EFF20000E0188000000000013
:100210000C000700E0D720000100200011000700BB
:10022000000020000000E000020032000000020098
:1002300000000000C6040200000000000040DA00D8
:100240000000FE004440A900000020000000E00083
:100250000300320000002000A00188004440A800F4
:100260000000060091018800800078000000EB008B
:1002700015003700E280400032A0B4009101BA00BE
:10028000E280400032A0B4009102BA00E280400057
:1002900032A0B4000002EB00472BDE00F507B200ED
:1002A000602CE10004003A000059EB008301E900F2
:1002B000FDFF3E00040037006128E100010032002C
:1002C0000082EB00040007001101BA000200E00008
:1002D000E8FF3A00000006003159BA008301E90046
:1002E0000C0032002159BA008301E90008003200F5
:1002F0000400E00003003A00E280400032A0B400B5
:10030000F5FF370011D9BA008301E900FAFF3A007E
:100310008100E800E180400032A0B4000000060047
:100320000040DA000000FE0080407800E1CF50007D
:100330000B003200E2CF50000E0032000040EB0014
:10034000E0CF500011003A00721B8000680161008C
:1003500010C0B3000D00320001407800000006001C
:10036000F21A800068016100014078000700320045
:1003700004003700711A8000E880600010C0B300EC
:10038000020032000040EB00000006000000060002
:100390008001EB008180FB0008003700E04F510036
:1003A0000300320064372000E14F510001003200A9
:1003B0006438200064F079008301E800818F5100E7
:1003C000F6FF350000000600401BDE00070020009D
:1003D000E1CF520008003200E2CF52000A003200A2
:1003E000001B8800161B8800221B88000000EB0001
:1003F0000481FB0011003700801A8800961A8800DB
:10040000A21A8800F9FF3700001A8800161A88001F
:10041000221A8800F5FF370063352000E1CF520033
:100420000400320063362000E2CF520001003A009F
:1004300063342000E17178000000E800820F500072
:10044000F5FF35006F426200E1CF52000300320039
:10045000E2CF520013003A00090037006F0062003B
:100460004300DD00A41A800071F82F000102620031
:1004700000027200A41A88005E63A8000000060053
:100480006F0062004300DD00241A800071F82F0025
:100490000102620000027200241A88004E63A80064
:1004A000000006006F0062004300DD00241B800096
:1004B00071F82F000102620000027200241B880004
:1004C0006E63A80000000600889FBE00401CDE008E
:1004D000090020000002FB00CFA2DE00E50F520061
:1004E000E08F5A001E003E00046001000500370046
:1004F000070037000A0037000D00370010003700F2
:1005000013003700011888001818880016003700FB
:1005100041188800581888006218880013003700B6
:100520008118880098188800A21888000F003700EA
:10053000C1188800D8188800E21888000B0037001E
:10054000011988001819880022198800070037004F
:100550004119880058198800621988000300370083
:100560000118880018188800221888004F04BE005F
:1005700000000600401ADE0005002000E04F500099
:1005800006003200E14F500004003A00C119880013
:10059000D4198800E219880000000600811988003B
:1005A00094198800A2198800000006000000FA00D3
:1005B0000000EB00501688000000EB008016880059
:1005C0000000EB00B0168800D202A900D242A900B8
:1005D000D262A9000000EB00E0168800D882A900D2
:1005E000D8A2A9000000EB0010178800DE82A90045
:1005F000DEA2A9000080FA00000006001000FA0048
:10060000500798006107980072079800400020008A
:100610002007980000102000100798000000EB0051
:10062000400798000000EB00300798005E00900043
:10063000EE0090008100D1000080D30050079800A8
:1006400061079800BE0090004E009000EA04070089
:1006500010042400EB0407000E80E80080017800FD
:10066000420020003E009000CE0090009500070060
:1006700000022000000F78000B0037001E007800F9
:10068000010020003007980041079800BE0090004C
:100690004E009000D804070010042400D90407007D
:1006A000000220001E0F4000F00F20009E00780086
:1006B000808F5000F1FF360027003700DE009000E9
:1006C0006E009000CC0407005E019000EE019000E7
:1006D000F0FF200001002000800F5100818F5900A1
:1006E0000F0036005E019000EE019000F0FF2F0039
:1006F00001002000800F5100818F590008003E004A
:1007000010042400BF0407000060FE00FE009000FB
:10071000F0032000808F500003003E0006003700E9
:1007200010002000100037007E0090000004B1008F
:1007300070079800020037000000EB007007980077
:100740005E009000EE0090000004B0000180B00058
:1007500050079800610798007E009000E00F50005D
:10076000D6FF3A000000EB000080FA00000006000F
:100770000400FA00E0438000E10F4000090032006D
:10078000E04380004600DD0001002000008FBE0035
:100790009E0078001E0090009704070010002400BF
:1007A000980407000080FA00000006001200FA001A
:1007B000500798006107980072079800030F98008F
:1007C0005E009000EE0090008100D1000080D30018
:1007D0005007980061079800E04380006101B8006D
:1007E0005E009000EE0090004A0ADD004600DE0048
:1007F00000007200C608DE00800F5100818F590092
:1008000025003200DAFF07005E009000EE00900045
:100810004A09DD004600DE0000007100C608DE0067
:1008200000007800E0438800E04380004600DD00DF
:100830000100200030079800410798000000EB00FD
:10084000000F780011003700BE0090004E009000AD
:100850007B04070010079800210798009E01900074
:100860002E019000BE0090004E0090007004070022
:100870003E009000CE00900062004000E080480002
:1008800030079800410798001E0FE8001E0078000E
:10089000FF0F5000ECFF34007E0090008E089000A7
:1008A00010079800210798009E0190002E019000EB
:1008B000DE0090006E0090005D0407000080FA00EA
:1008C000000006000E00FA0030079800410798006B
:1008D00052079800630798000000EB00000F7800B3
:1008E000240037001E007800EE00900000804000D9
:1008F00010407800204798001E0FE8001E00780086
:10090000EE009000008040001040780030479800D2
:100910001E0FE8001E007800EE00900000804000EE
:1009200010407800404798001E0FE8001E00780035
:10093000EE00900000804000104078005047980082
:100940001E0FE8001E009000AE0090000001BE00E7
:100950003E009000CE00900094FF07003E00900003
:10096000CE00900064004000E0804800300798000E
:10097000410798009E0078005E009000808F500034
:10098000D8FF39000080FA00000006001000FA00CD
:100990006000B8006007980071079800000021000F
:1009A0000100200020079800310798000000EB00AC
:1009B000000F780014003700AE0090003E00900059
:1009C0001F0407004007980051079800FE009000A0
:1009D0005E0090000080680070079800EE009000B4
:1009E0004E00900000806800600798002E00900084
:1009F000BE00900062004000E080480020079800A0
:100A0000310798001E0FE800F07F23009E00780059
:100A1000808F5000E8FF3600000021000100200018
:100A20002007980031079800AE0090003E0090002B
:100A300003040700400798005107980000042000B5
:100A400013040700010020002007980031079800D8
:100A50002E019000BE019000A0A5250001002000FD
:100A6000800F5100818F590008003A004E0190001C
:100A7000DE019000F0FF2F00F10F2000800F5100E9
:100A8000818F59000100320019040700C7FE0700DA
:100A90001061A80084E0A9008CE0A90050030700C1
:100AA000E2A2A800C0438000D1438000E00F5000C4
:100AB000E08F580006003200C0438000D143800020
:100AC00061005000E0805800C0438800D143880096
:100AD000C0438000D1438000E00F5000E08F5800F9
:100AE00001003A00D642A800A0862000F8020700C4
:100AF000304798003E409000E04F50000100320027
:100B000011E1A9003E409000E14F5000BB013A00C6
:100B1000101780004500DE00614060000004A20064
:100B2000614060000080FB00610060004500DD0066
:100B300012178000F1FD2F0081006100008070001D
:100B4000101788002E4090008080FB0050438000EA
:100B5000808F50000F00320050438000EC0F500097
:100B60000C003E0050438000E00F500009003200AE
:100B70002E4090008080FB00001520000080700057
:100B800041C0B300840207000040EB0020479800FA
:100B9000D20137005043800001002000F200200005
:100BA00003002000820F5000838F580090013E0008
:100BB000006001000F003700A1003700A9003700D6
:100BC000B1003700B9003700C1003700C900370055
:100BD000D1003700D9003700E1003700E9003700C5
:100BE000F1003700F9003700010137001E0137001E
:100BF000B9013700E08620009F020700E28620004E
:100C0000124178008281FB00F286200012417800B8
:100C10000281FB004811DD00030171000200780031
:100C200002872000124178008281FB001287200099
:100C3000124178000281FB004811DD0003017100C0
:100C4000820078008101D1000081D30074C8BF0008
:100C50008080FB0075C8BF000080FB004800DD00FD
:100C60000100700001002000020140008381480063
:100C7000F00F200001002000800F5100818F5900EB
:100C800019003600E2862000124178008281FB00C4
:100C9000F2862000124178000281FB004811DD003D
:100CA00003017100020078000287200012417800E1
:100CB0008281FB0012872000124178000281FB0034
:100CC0004811DD0003017100820078008101D1002C
:100CD0000081D300F0FF200001002000800F5100B0
:100CE000818F59005000360072C8BF00624060001A
:100CF000E04F50004500320072C8BF006140600004
:100D0000E04F50003B0032006EC8BF006040600002
:100D10006EE8B7006FC8BF00E040600000C2B300DB
:100D200000C070006FE8B70070C8BF00604060008E
:100D300070E8B70071C8BF006040600071E8B7009C
:100D400074C8BF006040600074E8B70075C8BF0099
:100D5000E040600000CFB30000C0700075E8B7004D
:100D600074C8BF008080FB0075C8BF000080FB0016
:100D70004800DD000100700080017800E28620005C
:100D8000124178000282FB00F286200012417800B6
:100D90000281FB004811DD000401710002007800AF
:100DA00002872000124178000282FB001287200097
:100DB000124178000281FB004811DD00040171003E
:100DC00082007800030178000CFE0700E00F50005D
:100DD0000400320041C0B30000152000EE010700FE
:100DE0000700370011C0B30000152000EA0107001A
:100DF0000300370041C0B30000152000E6010700E2
:100E00000040EB00204798000500370011C0B300F8
:100E100000152000E001070010C0B3002047980033
:100E2000000000002D01370051C0B3000015200064
:100E3000D90107000040EB00204798002701370048
:100E4000008020000C02070011C0B3001015200024
:100E5000D10107002E4090000040E8002047980094
:100E60001E013700808020000302070011C0B3007C
:100E700020152000C80107002E4090000040E80027
:100E8000204798001501370000812000FA01070073
:100E900011C0B30030152000BF0107002E409000A4
:100EA0000040E800204798000C01370080812000B6
:100EB000F101070011C0B30040152000B601070082
:100EC0002E4090000040E8002047980003013700C2
:100ED00000822000E801070011C0B3005015200077
:100EE000AD0107002E4090000040E8002047980028
:100EF000FA00370080822000DF01070011C0B30034
:100F000060152000A40107002E4090000040E8007A
:100F100020479800F100370000832000D601070029
:100F200011C0B300701520009B0107002E409000F7
:100F30000040E80020479800E80037008083200048
:100F4000CD01070011C0B3008015200092010700F9
:100F50002E4090000040E80020479800DF00370056
:100F600000842000C401070011C0B30090152000C8
:100F7000890107002E4090000040E80020479800BB
:100F8000D600370080842000BB01070011C0B300E9
:100F9000A0152000800107002E4090000040E800CE
:100FA00020479800CD00370000852000B2010700DF
:100FB00011C0B300B0152000770107002E4090004B
:100FC0000040E80020479800C400370080852000DA
:100FD000A901070011C0B300C01520006E01070071
:100FE0002E4090000040E80020479800BB003700EA
:100FF0002E4090000080FB000080E9008000780017
:1010000074C8BF000081FB0075C8BF000080FB00F2
:101010004800DD00020070000000E9004300DE002F
:10102000808F5000090032002E4090008080FB002D
:10103000001520000080700041C0B3005601070079
:101040000040EB0020479800A40037007208A80079
:1010500011C0B300D01520004F010700E0C0B3005D
:10106000204798009D00370072C8BF0061406000B3
:10107000E04F50005800320072C8BF000042B2007A
:10108000E04F50003D003200E2862000124178001F
:101090008281FB00F2862000124178000281FB0071
:1010A0004811DD0003017100020078000287200072
:1010B000124178008281FB001287200012417800E3
:1010C0000281FB004811DD000301710082007800FD
:1010D000E00F5000E08F580008003A000040EB009D
:1010E00000E8B70010C0B30001E8B70040C0B3008B
:1010F00002E8B7000040EB0003E8B70074C8BF0087
:101100008080FB0075C8BF000080FB004800DD0048
:101110000100700000027800E28620001241780091
:101120008281FB00F2862000124178000281FB00E0
:101130004811DD00030171000200780002872000E1
:10114000124178008281FB00128720001241780052
:101150000281FB004811DD0003017100820078006C
:101160000380200004017800D6FD070011C0B30001
:10117000E0152000080107001A00370072C8BF0000
:101180000044B200E04F5000160032002E009000E4
:10119000BE009000000040008180480020079800B9
:1011A00031079800AE0090003E0090001202070048
:1011B00050042400130207002E019000BE0190008D
:1011C00000802000C100070011C0B300E01520001E
:1011D000F10007000300370041C0B300E015200014
:1011E000ED0007000040EB00204798003B0037006F
:1011F0000040EB0020479800380037003E40900048
:10120000E24F500035003A00101780004500DE0024
:10121000614060000004A200614060000080FB00AB
:10122000610060004500DD0012178000F1FD2F0015
:101230008100610000807000101788005143800019
:1012400000202000808F500003003A0061C0B300EE
:1012500010202000D0000700514380000022200011
:10126000808F500007003A0041C0B30000222000E8
:10127000C9000700A1A5250000042000F401070013
:10128000FFFF37005143800000062000808F500090
:1012900012003A0036FD0700A1A525000004200039
:1012A000EB01070000042000F9010700A1A52500BB
:1012B000810F500004003A0011C0B3000016200056
:1012C000B5000700FFFF370041C0B3000016200043
:1012D000B100070001003700000000000060FE00C0
:1012E000F0FD37000C00FA00300798004207980024
:1012F000530798000000EB00000F78001A00370039
:10130000CE0090005E009000CD010700100798000D
:10131000210798004E409000BE0090008048780061
:101320003E0090008000E8003E4090008048780039
:101330003E0090008080E8002E40900080487800B9
:101340003E00900063004000300798004E0090007F
:10135000DE00900062004000E080480040079800F6
:10136000510798001E0FE8001E007800FF0F500084
:10137000E3FF34000080FA00000006000C00FA00D1
:101380003007980042079800530798000000EB00D0
:10139000000F780016003700CE0090005E0090002D
:1013A000A701070010079800210798003E40900011
:1013B000BE009000804878003E0090008000E80069
:1013C0002E409000804878003E0090000080E800A9
:1013D000300798004E009000DE0090006200400050
:1013E000E080480040079800510798001E0FE80071
:1013F0001E007800EF0F5000E7FF34000080FA0075
:10140000000006000E00FA004007980052079800FE
:10141000630798000000EB00000F78000000EB006D
:1014200010079800220037001E009000CE009000A8
:101430000080400010407800404798001E00900057
:101440000000E800CE0090000080400010407800CE
:10145000504798001E0090000080E800CE009000E9
:101460000080400010407800604798000040EB008A
:10147000704798001E00900063004000100798001D
:10148000AE0190003E019000DE0090006E009000E2
:10149000670107005E009000EE00900062004000CF
:1014A000E080480050079800610798001E0FE80090
:1014B0001E007800FF0F5000DBFF340010002400F6
:1014C000500107000080FA00000006000E00FA003C
:1014D0004007980052079800630798000000EB004F
:1014E000000F78000000EB00100798001E00370086
:1014F0001E009000CE009000008040001040780058
:10150000404798001E0090000000E800CE009000C8
:101510000080400010407800504798000040EB00E9
:10152000604798000040EB00704798001E00900054
:101530000080E80010079800AE0190003E01900086
:10154000DE0090006E009000390107005E00900000
:10155000EE00900062004000E080480050079800D4
:10156000610798001E0FE8001E007800EF0F500082
:10157000DFFF340050002400220107000080FA0041
:10158000000006000400FA00000F78001107980020
:101590000080FA00000006000E00FA00881F7800A4
:1015A00050079800414F980080C0B300004F78006A
:1015B0004E48900010479800DE0090000020200068
:1015C000808F500013003200DE00900010202000B9
:1015D000808F50000F00320010C0B30020479800E9
:1015E0006EC8BF00304798006FC8BF0040479800E2
:1015F00071C8BF005047980072C8BF00604798008C
:1016000050C5B30070479800A0CAB300004F9800BF
:101610000900370060C0B300204798000040EB008D
:101620003047980010C0B3004047980040C0B30056
:10163000004F7800000000000040EB003AFB07007C
:10164000E04F5000FCFF32001E4478005E00900026
:10165000DD0007008E00E8008042EB0008427800C1
:101660000081EB008081EB0057FB07004F047800FE
:101670000080FA00000006000400FA00100798003D
:101680000040EB00004F78000B0037009E407800D0
:101690000180FB009E009000808040001E4078008A
:1016A0000081FB00E087200000004100104078002E
:1016B000804878001E4FE8001E407800E74F500039
:1016C000F2FF360010C0B3000080FA0000000600F0
:1016D0000400FA00100798000000EB00000F7800EB
:1016E000711C80000008200000806000E00F5000A6
:1016F0000B003200001C80004200DE00F17F200061
:1017000001006000000F78000041EB0081C0B300D1
:10171000E08720001EFB07008EE3A9000F003700C2
:10172000F11B80000008200000806000E00F5000E6
:101730000A003200001C80004200DE00F17F200021
:1017400001006000000F780012C0B30081C0B30038
:10175000E08720000EFB07007EE3A900F0042000D4
:101760009E007800808F50000D003600F0052000AC
:101770009E007800808F500009003E00001C800011
:101780004200DE00F17F200001006000EF006000F9
:101790001E0090000108780010C0B3000E00370052
:1017A000F00520009E007800808F50000900360070
:1017B000001C80004200DE00F17F2000010060007C
:1017C000800078001E0090000108780020C0B3005F
:1017D000010037000040EB000080FA000000060026
:1017E0000000FA00DEA2A900811C8000F08F2F000B
:1017F000808060000040200000807000801C880015
:10180000000000000100370000000000811C800083
:10181000000E20008080600000082000808F5000B3
:10182000F9FF3A0064E3A8006503A80091E3A8006B
:1018300091A3A9009183A8009163A800911C800046
:1018400000FC2F00008060003000B300901C880076
:10185000911C8000F0F32F008080600000042000C5
:1018600000807000901C880095C3A900A11C800016
:1018700080FF2F0000806000A01C8800A11C800059
:101880008003200000807000A01C8800A11C800044
:10189000F08F2F00808060000050200000807000DA
:1018A000A01C880094E3A80094C3A8006023A900AA
:1018B0006003A900701B80003000B300701B88001B
:1018C0006523A9005023A9005003A900F01A800045
:1018D0003000B300F01A88005523A9008EE3A90058
:1018E0007EE3A9008E43A8003003A9003803A900B5
:1018F0000003A9000803A9006011B8008000EB00F4
:101900000040EB001BFB07006011B8008000EB00FB
:1019100010C0B30017FB07000081EB008081EB00D3
:101920008080EB000040EB00E7FA07000081EB004D
:101930008081EB008080EB0010C0B300E2FA07006A
:101940000081EB008081EB008080EB0020C0B300C1
:10195000DDFA07000081EB008081EB008080EB0066
:1019600030C0B300D8FA07000081EB008081EB00A3
:101970008080EB0040C0B300D3FA07000081EB0089
:101980008081EB008080EB0050C0B300CEFA0700EE
:10199000811C8000F08F2F0000806000801C880078
:1019A000000000000100370000000000811C8000E2
:1019B000000E200000806000E00F5000FAFF3A00A7
:1019C0000080FA00000006000200FA00000F780014
:1019D000007C20001E006000C500DD001E007800B5
:1019E0004201DD00F00F2000000061000080700067
:1019F0000080FA0000000600203B8800113B8800B0
:101A000000000600003B880050052000303B8800A5
:101A1000A00A2000303B880061E7A8000000000019
:101A20000000000061E7AF00FEFF37000000060085
:101A3000900188008308BB008288BB00000006007C
:101A4000900188001100BA009180BA0000000600E1
:101A5000841F7800F407200094018800243B88004C
:101A600004C02F004100DD0004004000103B88004E
:101A70001200070044002400043B88000108BB005A
:101A800010000700010078004F02780000000600F7
:101A9000841F7800F407200094018800243B88000C
:101AA00004C02F00143B88004100DD000402400008
:101AB0001400BA004F02780000000600440424001D
:101AC000043B88001000FC0054052000343B8800D3
:101AD000A40A2000343B880061E7A8000000000051
:101AE0000000000061E7AF00FEFF370000000600C5
:101AF00000100400000000000000060000080000C4
:101B000076000000000000007608000008000000D9
:101B10000200000001002000A1070000FFFF0000FC
:101B20007E08000008000000000000000000000027
:101B3000FFFFFF00FFFFFF00FFFFFF00FFFFFF00B1
:101B4000FFFFFF00FFFFFF00FFFFFF00FFFFFF00A1
:101B5000FFFFFF00FFFFFF00FFFFFF00FFFFFF0091
:101B6000FFFFFF00FFFFFF00FFFFFF00FFFFFF0081
:10200000CF9720000EFF20000E0188000000000086
:102010000C000700204022000100200011000700F2
:10202000000020000000E00002003200000002007A
:102030000000000024120200000000000040DA004E
:102040000000FE004440A900000020000000E00065
:102050000300320000002000A00188004440A800D6
:102060000000060091018800800078000000EB006D
:1020700015003700E280400032A0B4009101BA00A0
:10208000E280400032A0B4009102BA00E280400039
:1020900032A0B4000002EB00472BDE00F507B200CF
:1020A000602CE10004003A000059EB008301E900D4
:1020B000FDFF3E00040037006128E100010032000E
:1020C0000082EB00040007001101BA000200E000EA
:1020D000E8FF3A00000006003159BA008301E90028
:1020E0000C0032002159BA008301E90008003200D7
:1020F0000400E00003003A00E280400032A0B40097
:10210000F5FF370011D9BA008301E900FAFF3A0060
:102110008100E800E180400032A0B4000000060029
:102120000040DA000000FE0080407800E1CF50005F
:102130000B003200E2CF50000E0032000040EB00F6
:10214000E0CF500011003A00721B8000680161006E
:1021500010C0B3000D0032000140780000000600FE
:10216000F21A800068016100014078000700320027
:1021700004003700711A8000E880600010C0B300CE
:10218000020032000040EB000000060000000600E4
:102190008001EB008180FB0008003700E04F510018
:1021A0000300320064372000E14F5100010032008B
:1021B0006438200064F079008301E800818F5100C9
:1021C000F6FF350000000600401BDE00070020007F
:1021D000E1CF520008003200E2CF52000A00320084
:1021E000001B8800161B8800221B88000000EB00E3
:1021F0000481FB0011003700801A8800961A8800BD
:10220000A21A8800F9FF3700001A8800161A880001
:10221000221A8800F5FF370063352000E1CF520015
:102220000400320063362000E2CF520001003A0081
:1022300063342000E17178000000E800820F500054
:10224000F5FF35006F426200E1CF5200030032001B
:10225000E2CF520013003A00090037006F0062001D
:102260004300DD00A41A800071F82F000102620013
:1022700000027200A41A88005E63A8000000060035
:102280006F0062004300DD00241A800071F82F0007
:102290000102620000027200241A88004E63A80046
:1022A000000006006F0062004300DD00241B800078
:1022B00071F82F000102620000027200241B8800E6
:1022C0006E63A80000000600889FBE00401CDE0070
:1022D000090020000002FB00CFA2DE00E50F520043
:1022E000E08F5A001E003E00046001000500370028
:1022F000070037000A0037000D00370010003700D4
:1023000013003700011888001818880016003700DD
:102310004118880058188800621888001300370098
:102320008118880098188800A21888000F003700CC
:10233000C1188800D8188800E21888000B00370000
:102340000119880018198800221988000700370031
:102350004119880058198800621988000300370065
:102360000118880018188800221888004F04BE0041
:1023700000000600401ADE0005002000E04F50007B
:1023800006003200E14F500004003A00C1198800F5
:10239000D4198800E219880000000600811988001D
:1023A00094198800A219880000000600839F680025
:1023B0000100E00002003D0060001000E080180015
:1023C0000300E00002003D0060011100E0811900FF
:1023D000050007004F00E00002003B006000100015
:1023E000E0801800000006006022B800060220000D
:1023F0000000D0008180D2000482D2008582D20009
:102400000000A0000202520083825A000300310043
:102410000202420083824A000000A1000603E90094
:10242000F3FF3A0000000600800178000200370048
:10243000B1597800040178000202E900E00F510070
:10244000FBFF3A00000006000000FA00889FBE0073
:1024500070002000804188000000EB00904188005F
:102460000000EB00A04188000000EB006045880000
:102470000000EB0025090700A15A2500810F50003C
:1024800005003A006002200020090700B11020007A
:10249000810F50000100320082040700100020006C
:1024A0001A09070050408800200020001709070083
:1024B0006040880040012000140907007040880037
:1024C00030002000110907008040880040002000F3
:1024D0000E09070090408800500020000B090700FB
:1024E000A04088006000200008090700B040880074
:1024F0007000200005090700C0408800800020000F
:1025000002090700D040880090002000FF08070063
:10251000E0408800A0002000FC080700F040880090
:10252000B0002000F908070000418800C00020002A
:10253000F608070010418800D0002000F3080700CB
:1025400020418800E0002000F008070030418800AA
:10255000F0002000ED080700404188000001200045
:10256000EA0807005041880010012000E708070032
:102570006041880020012000E408070070418800C5
:1025800050012000E1080700304088006001200071
:10259000DE0807004040880080012000DB080700BB
:1025A00001002000C004DD000800200070012000B0
:1025B000D60807000100200008004000898048007C
:1025C000704588008145880090012000CF080700F1
:1025D00090458800A0012000CC080700A045880095
:1025E000B0012000C9080700E0458800C0012000B4
:1025F000C6080700B045880031408000703E2000CA
:10260000808F50000400360031408000405120008F
:10261000808F500004003600B1452000500120009A
:10262000AA080700304088004140800070702000F8
:10263000808F50000400360041408000009620004A
:10264000808F500004003600D187200060012000F8
:102650009E08070040408800E90807000E010700B7
:102660004E01070012010700C008070030012000DA
:10267000A60807000001780080D02B003100200060
:102680004F0807008560A9008D60A800810C8000BC
:1026900080FF2F0000806000800C8800B10C80005B
:1026A00080FF2F00008060006000B300B00C880045
:1026B00013E1A800B80607001117800000042000ED
:1026C00000806000E00F50001E003A00E2A2A80067
:1026D00001448000300420000088B90080007800A8
:1026E0000005200000017800110009008280D80058
:1026F0008000780030148000808F50000E00310080
:1027000031148000D01B2000808F5000070036005D
:1027100090488000E00F500036003A00E2C2A80066
:1027200020002000804888003200370090012000FF
:10273000904888002F0037009001200090488800C2
:102740002C00370090012000904888003114800050
:10275000101C2000808F500011003E00800C800073
:1027600067006000E10F50000A003A00810C800011
:1027700080FF2F0000806000800C88000000EB00CC
:10278000E04688000000EB00A04188000000EB005C
:1027900010478800E2C2A900E2A2A8001500370095
:1027A00080488000E00F500012003A0011178000AE
:1027B0000002200000806000E00F50000D00320099
:1027C0009045800080007800900120003F080700BD
:1027D000A045800080007800A00120003B08070091
:1027E000E045800080007800B00120003708070035
:1027F000E2A2A90050428000C600DE005023200063
:10280000808F500004003E0094C8BF00624060000A
:10281000E04F500001003200D602A80094C8BF006B
:1028200061406000E04F500018003200800C8000D2
:1028300067006000E00F50001E003A003114800075
:1028400050362000808F50001A003E00A0418000CA
:10285000E00F500017003A0011178000000220001E
:1028600000806000E00F500012003A0000002100DC
:10287000B04088006000B800B0498800C1498800B5
:1028800010002000604588000A003700810C80009D
:1028900080FF2F0000806000800C88000000EB00AB
:1028A000E04688000000EB00A04188000000EB003B
:1028B00010478800E1468000B0458000808F5000BE
:1028C0000800360010002000A04188000000EB0046
:1028D000E0468800810C800080FF2F0000806000AF
:1028E000800C880001478000E0458000808F500008
:1028F0000200360000478000E045880014C9BF0090
:10290000E04F500025003200E602070029010700D1
:10291000918820009140780010C0B300E9CF5000AA
:1029200001003E000040EB008140E8008000FD0017
:1029300089E8B7008000FD00E04F5000170032002A
:102940000040EB0089E8B7008188200091407800C2
:1029500010C0B300E9CF500001003E000040EB0082
:102960008140E8008000FD0088E8B7008000FD009D
:10297000E04F5000090032000040EB0088E8B7004B
:102980000000EB00E1070700A15A2500810F50006D
:102990000100320043030700F60007000060FE005C
:1029A000204480003144800061004000E080480005
:1029B00020448800314488003FFF37000000FA00BF
:1029C000504680000000E900504688007806070065
:1029D0000080FA00000006003600F800809FBE006C
:1029E000829FBE00849FBE00869FBE003400F80018
:1029F00000002000A00188000000FA008560A90006
:102A0000800C800070006000E00F50000900320070
:102A1000A0418000E00F500006003A00810C8000C9
:102A200080FF2F0000806000800C880010002000D4
:102A30006045880031148000803E2000808F500067
:102A4000040036006000B800B0498800C149880021
:102A5000E282A90050468000E00F500002003200E0
:102A6000D6FF070004003700BE0607009D060700DA
:102A7000E30607004E0607000080FA003400F90064
:102A80004F03BE004F02BE004F01BE004F00BE000C
:102A90003600F900004006000000FA008D60A90031
:102AA000D462A900D442A9000080FA000000060008
:102AB0000000FA000000EB000015880001158000FE
:102AC000F0CF2F0000806000001588000115800005
:102AD000F0F12F0080806000000420000080700072
:102AE00000158800A062A800A042A8000000EB002A
:102AF0001015880011158000003020000080700043
:102B0000101588001115800030FC2F000080600037
:102B100010158800A342A80011158000F0FF2100C5
:102B20008080600000002200008070001015880086
:102B300021158000F00F2E008080600000802000B2
:102B400000807000201588002115800000FC2F00F7
:102B5000008060000030A000201588000000EB001D
:102B60003015880031158000F0F32F0000806000E0
:102B700030158800A682A900A6A2A8000000EB00DC
:102B800040158800A8C2A800100020005015880039
:102B9000A1E2A8000080FA00000006000000FA0090
:102BA0000000EB00800C88000000EB00600C880047
:102BB0000000EB00700C880090002000800C880062
:102BC000801C20007008880084E0A9008660A900AD
:102BD0008CE0A8008E60A8000080FA0000000600CB
:102BE000809FBE003400F80000002000A001880093
:102BF0000000FA0084E0A90060458000E00F50006A
:102C00000C003200A0418000E00F500009003A00A3
:102C10000000EB0060458800800C80007000B3006D
:102C2000800C8800F04680000000E800F046880034
:102C30000E003700F146800000478000808F500072
:102C400002003600F0468000004788000000EB00DC
:102C5000F0468800E0468000E00F5000030032009C
:102C6000E04680000000E900E04688000080FA00AD
:102C70003400F9004F00BE0000400600809FBE00F7
:102C80003400F80000002000A00188000000FA00D5
:102C90008660A900800C800070006000E00F50008A
:102CA00012003200A0418000E00F50000F003A00F7
:102CB000810C800080FF2F0000806000800C880065
:102CC0001000200060458800E04680000000E80019
:102CD000E046880090458000A145800061004000EA
:102CE000E080480090458800A14588000080FA00F7
:102CF0003400F9004F00BE0000400600809FBE0077
:102D00003400F80000002000A00188000000FA0054
:102D10008080A90030438000414380006100400072
:102D2000E080480030438800414388000080FA007A
:102D30003400F9004F00BE00004006003400F800E7
:102D4000881F780008002000A80188004F04780040
:102D50000000FA00FFFF37003400F800881F7800F9
:102D600008002000A80188004F0478000000FA0045
:102D7000FFFF37000000FA0020448000314480004B
:102D800010438800214388006000B8002044880078
:102D900031448800F042800001438000610040001F
:102DA000E0804800F0428800014388000080FA007B
:102DB000000006000000FA00881F7800A0882000AC
:102DC000C3040700E04F5000680032005144800007
:102DD00000202000808F50002A003A0040C0B3003D
:102DE000C2E8B70010C0B300C3E8B700B0C0B3007A
:102DF000C4E8B7000040EB00C5E8B70070458000AC
:102E00008145800000407800C6E8B700704580002A
:102E1000814580004809DD004800DE0000007100A7
:102E2000C808DE0000407800C7E8B70070458000A1
:102E3000814580004008DE0001002000004078004D
:102E4000C8E8B70070458000814580004808DE0072
:102E50000100200000407800C9E8B700288C20005D
:102E600010202000460507008042EB0084C0B3001C
:102E7000880078000081EB008081EB00D2FC070025
:102E8000850137005144800000212000808F5000D0
:102E900006003A008080EB00000420008B0607004B
:102EA000E10F40007C013A00FFFF370051448000F1
:102EB00000602000808F500028003A00820020002F
:102EC000C18F20004089200057FD070094C8BF0033
:102ED0000080FB004200DE00614060000080FB00DB
:102EE000610060004300DD00E216800071FF2F00EA
:102EF0008100610000807000E016880094C8BF0067
:102F00000080FB004300DE00614060000080FB00A9
:102F1000610060004200DD00E2168000B1FF2F007A
:102F20008100610000807000E016880094C8BF0036
:102F30000080FB000000D100614060000080FB00C9
:102F400061006000B2168000E1FF2F008100610087
:102F500000807000B01688004F013700C18F20003C
:102F6000504480003E0207004B013700724380004E
:102F70008343800070438000814380004C0ADD0061
:102F80004400DE0000007200C408DE0000015100B1
:102F90008181590020408000010020000200400093
:102FA000838048007043880081438800524380003A
:102FB0006343800050438000614380004C0ADD0081
:102FC0004400DE0000007200C408DE000001510071
:102FD0008181590010408000010020000200400063
:102FE000838048005043880061438800B016800009
:102FF0000040780061406000614060000040400097
:10300000C288200012417800D1CFB3008140610016
:1030100000C070008CE8B700E01680004300DE00BE
:103020006140600061406000210020000100DD007F
:10303000C288200012417800B1CFB3008140610006
:1030400000C070008CE8B700E01680004200DE008F
:103050006140600061406000310020000100DD003F
:10306000C28820001241780071CFB3008140610016
:1030700000C070008CE8B700101780004600DE002A
:103080006140600061406000410020000100DD00FF
:10309000C288200012417800F1CEB3008140610067
:1030A00000C070008CE8B7005042800001FC2F0087
:1030B00000805000010020000001BE0000682F00C9
:1030C000F1062000C8FC0700004078008043B000F3
:1030D0008DE8B700800C800067006000E00F5000B2
:1030E00009003200B140800000002100808F5000B4
:1030F0000500320010478000E10F500002003A0046
:1031000010002000010037000000EB0000407800B4
:103110006140600061406000C28820001241780078
:10312000E1CFB3008140610000C070008CE8B700BF
:1031300050438000614380006A09B90002017800B1
:103140006002B9008401780003014100A30020005F
:103150000300B80001014100820078003240800085
:1031600003002000A0FC070080007800F00F200082
:10317000008160008EC8BF006040600002407000A7
:103180008EE8B700C808DE008FC8BF00604060004E
:10319000014070008FE8B7007043800081438000D9
:1031A0006A09B900020178006002B9008401780060
:1031B00003014100A30020000300B8000101410009
:1031C00082007800424080000300200086FC070057
:1031D00080007800F00F20000081600090C8BF00E0
:1031E000604060000240700090E8B700C808DE0050
:1031F00091C8BF00604060000140700091E8B700D6
:103200007042800001002000C26D20000289B900D8
:10321000020178006002B9008401780003014100D6
:10322000C36D20000300B800010141008200780056
:103230004208DE000100200080007800F00F20002E
:103240000081600092C8BF006040600002407000D2
:1032500092E8B700C808DE0093C8BF006040600075
:103260000140700093E8B700C145800010C0B30072
:1032700032062000828F500001003E000040EB002B
:103280008100E800C1458800E04F50004600320050
:103290000000EB00C0458800E1468000F00F2000F0
:1032A00000816000A0C8BF00604060000240700064
:1032B000A0E8B700C808DE00A1C8BF0060406000F9
:1032C00001407000A1E8B70090458000A145800052
:1032D000F20F200082016000C289200012417800B4
:1032E00060416100034171000001FD009CE8B700EE
:1032F0000001FD00C801DE00D289200012417800E3
:103300006041610003417100020078009DE8B70050
:10331000F20F200082816000E289200012417800D3
:103320006041610003417100020078009EE8B7002F
:10333000C808DE009FC8BF00604060000140700008
:103340009FE8B70001478000F00F20000081600077
:10335000A2C8BF006040600002407000A2E8B70051
:10336000C808DE00A3C8BF006040600001407000D4
:10337000A3E8B70010C0B3006BFB0700E04F50009C
:103380004500320010702000FD0307008042EB0072
:1033900084C0B300C18920000081EB008081EB0074
:1033A00089FB07003C0037002147800010C0B300B4
:1033B000E58F500001003E000040EB008100E80076
:1033C00021478800E04F5000270032000000EB004A
:1033D0002047880061428000F00F200000816000DB
:1033E000A8C8BF006040600002407000A8E8B700B5
:1033F000C808DE00A9C8BF0060406000014070003E
:10340000A9E8B700B1428000F00F20000081600001
:10341000AAC8BF006040600002407000AAE8B70080
:10342000C808DE00ABC8BF0060406000014070000B
:10343000ABE8B70010C0B3003BFB0700E04F500003
:103440001500320020702000CD0307008042EB0001
:1034500084C0B300418A20000081EB008081EB0032
:1034600059FB07000C0037000040EB002EFB070063
:10347000E04F50000800320000702000C003070039
:103480008042EB0084C0B300C18820000081EB00C3
:103490008081EB004CFB07004F0478000080FA00AD
:1034A000000006000000FA000040EB0014E9B7003D
:1034B000DAC8BF008080FB000040E800DAE8B7000F
:1034C0006109B9000080EB008080EB000200400041
:1034D000838048004200200003002000820F50003B
:1034E000838F580038003E00006001000400370060
:1034F0000F00370015003700200037002600370086
:1035000000148000C0418800514280005042800079
:103510004600DE00808050000014800000804000E3
:1035200050428800400020005015880033003700CA
:1035300000148000D04188000014800060428800A0
:1035400000042000501588002C0037000014800073
:1035500010428800A1428000A04280004600DE00A8
:10356000808050000014800000804000A04288004D
:10357000000820005015880020003700001480004B
:103580002042880000148000B04288000010200013
:103590005015880019003700001480003042880060
:1035A000C1428000C04280004600DE0080805000A2
:1035B0000014800000804000C042880010002000FD
:1035C000501588000D00370000148000B0418800BD
:1035D00041428000404280004600DE008080500072
:1035E00000148000008040004042880010C0B300FA
:1035F000DAE8B700200020005015880071428000F2
:10360000704280004600DE00808050003014800050
:103610000080400070428800800C800067006000DD
:10362000E00F50000D0032003114800040382000BF
:10363000808F500009003600A0418000E00F50004C
:1036400006003A001000200010478800E282A8001F
:1036500040062000F045880010003700311480003B
:1036600050362000808F50000C003E001047800034
:10367000E00F500009003200F0458000E00F5000DC
:1036800003003A000000EB001047880003003700F9
:10369000F04580000000E900F04588000080FA0055
:1036A000000006000000FA000119200010002000B0
:1036B00086040700504088004106200020002000BA
:1036C0008204070060408800015926003000200075
:1036D0007E040700804088008157200040002000C1
:1036E0007A04070090408800B106200050002000B6
:1036F00076040700A0408800F1FF2700600020004A
:1037000072040700B0408800018F2D007000200077
:103710006E040700C040880041A323008000200001
:103720006A040700D0408800C15D2000900020009E
:1037300066040700E040880081382100A0002000D6
:1037400062040700F040880021032000B000200040
:103750005E04070000418800F1FF2700C000200040
:103760005A0407001041880001322000D0002000D8
:10377000560407002041880081BB2000E0002000A3
:103780005204070030418800B1042000F0002000FE
:103790004E04070040418800A100200000012000E5
:1037A0004A04070050418800110020001001200049
:1037B00046040700604188008000EB0020012000E3
:1037C00042040700704188000104200030012000FD
:1037D0003E04070001002000C0030700C1122000C2
:1037E000400120003904070070408800500120008B
:1037F00046040700304088006001200043040700B1
:10380000404088008000EB00900120002F0407005A
:103810008000EB00A00120002C0407008000EB00DA
:10382000B001200029040700A1002000C0012000F1
:1038300026040700B11020006002200023040700C6
:10384000410020007002200020040700A15A25003A
:103850000000EB001D0407000080FA0000000600D5
:103860000E00FA00889FBE0050079800610798007C
:103870006E009000008FE8006E009000904078008D
:1038800070C7B30080CF50007C013A006E009000FA
:103890000000E8009040780020C7B30080CF5000BF
:1038A00076013A005E009000D1602000810F500048
:1038B000B9003200D1602000810F50002E003E0080
:1038C00051602000810F50007B00320051602000C9
:1038D000810F500014003E0011602000810F500045
:1038E0005900320011602000810F500007003E0097
:1038F00001502000810F500035013200115020008E
:10390000810F5000430132005C013700316020001C
:10391000810F50005A00320031602000810F5000AA
:103920005E003E004F00370091602000810F500084
:103930007D00320091602000810F500007003E00A2
:1039400071602000810F500069003200716020001A
:10395000810F50006D003E005E003700B160200016
:10396000810F50007E003200B1602000810F5000B6
:1039700082003E007300370041612000810F50003B
:10398000BC00320041612000810F500014003E0055
:1039900001612000810F500094003200016120007D
:1039A000810F500007003E00E1602000810F5000B1
:1039B00080003200F1602000810F5000840032004E
:1039C0002E01370021612000810F50009500320048
:1039D00021612000810F500099003E008A003700CD
:1039E00091612000810F5000DE00320091612000C3
:1039F000810F50000A003E0061612000810F5000DD
:103A0000B400320061612000810F5000A000390035
:103A100071612000810F5000BF0032001701370094
:103A2000C1612000810F5000DC003200016F2000D6
:103A3000810F5000E0003200B1612000810F500082
:103A4000D20032000D0137001E007800100078000F
:103A500080007800100020009C0307005040880080
:103A6000060137001E007800100078008000780002
:103A7000200020009503070060408800FF00370009
:103A80001E007800100078008000780030002000D0
:103A90008E03070080408800F80037001E00780081
:103AA00010007800800078004000200087030700A5
:103AB00090408800F10037001E0078001000780068
:103AC000800078005000200080030700A04088009C
:103AD000EA0037001E0078001000780080007800AF
:103AE0006000200079030700B0408800E300370041
:103AF0001E00780010007800800078007000200020
:103B000072030700C0408800DC0037001E00780008
:103B10001000780080007800800020006B03070010
:103B2000D0408800D50037001E00780010007800D3
:103B3000800078009000200064030700E0408800C7
:103B4000CE0037001E00780010007800800078005A
:103B5000A00020005D030700F0408800C700370088
:103B60001E0078001000780080007800B00020006F
:103B70005603070000418800C00037001E0078008F
:103B80001000780080007800C00020004F0307007C
:103B900010418800B90037001E007800100078003E
:103BA00080007800D00020004803070020418800F2
:103BB000B20037001E007800100078008000780006
:103BC000E00020004103070030418800AB003700CF
:103BD0001E0078001000780080007800F0002000BF
:103BE0003A03070040418800A40037001E00780017
:103BF00010007800800078000001200033030700E7
:103C0000504188009D0037001E00780010007800A9
:103C100080007800100120002C030700604188001C
:103C2000960037001E0078001000780080007800B1
:103C30002001200025030700704188008F00370015
:103C40001E0078009000780040062000808F500011
:103C500081003E001E00780010007800800078008F
:103C60003001200019030700010020009B0207001B
:103C7000820037001E007800100078008000780075
:103C80004001200011030700704088007B003700CE
:103C90001E00780090007800703E2000808F500059
:103CA0006F0036001E007800900078004051200020
:103CB000808F50006C003E001E00780010007800DD
:103CC0008000780050012000000307003040880089
:103CD0006A0037001E0078009000780070702000A5
:103CE000808F5000620036001E007800900078003F
:103CF00000962000808F50005F003E001E0078007C
:103D0000100078008000780060012000EF020700BA
:103D100040408800590037001E00780010007800ED
:103D20008000780070012000E80207006104B800FC
:103D30001E80E800100078008000780080012000DC
:103D4000E202070001002000C000DD0000002000AA
:103D5000080040008980480070458800814588003F
:103D6000460037008000EB0090012000D7020700DA
:103D70000100200090458800A14588008000EB00EC
:103D8000A0012000D10207003C0037008000EB00BA
:103D9000B0012000CD020700380037001E00780077
:103DA0001000780080007800C0012000C7020700E2
:103DB000B0458800310037001E0078001000780000
:103DC00001002000B0498800C14988002B0037005D
:103DD0001E0078001000780080007800E0012000CC
:103DE000BA0207001E80E80010007800800078000A
:103DF000F0012000B50207009E00780064804000BA
:103E0000100078008000780000022000AF02070058
:103E10001A0037001E00780010007800800078003B
:103E200010022000A90207001E80E80010007800A0
:103E30008000780020022000A40207009E00780085
:103E4000648040001000780080007800300220007C
:103E50009E0207000900370000000000070037003D
:103E600000000000050037000000000003003700DC
:103E7000000000000100370000000000DE0090009C
:103E8000006F2000808F500010003A00B049800081
:103E9000C149800010079800210798000040EB00FE
:103EA000A1F80700E04F5000080032005E009000CB
:103EB000330107008E80E8008042EB0084C0B3002D
:103EC0000081EB008081EB00BFF80700DE0090006E
:103ED00020502000808F500018003A00E0012000A0
:103EE0008A02070010079800F001200087020700EF
:103EF0002007980000022000840207003007980085
:103F00001002200081020700400798000040EB00EB
:103F100085F80700E04F5000080032005E00900076
:103F2000170107008E80E8008042EB0084C0B300D8
:103F30000081EB008081EB00A3F80700DE00900019
:103F400030502000808F500018003A0020022000DE
:103F50006E02070010079800300220006B02070075
:103F600020079800400220006802070030079800F0
:103F70005002200065020700400798000040EB0057
:103F800069F80700E04F5000080032005E00900022
:103F9000FB0007008E80E8008042EB0084C0B30085
:103FA0000081EB008081EB0087F80700DE009000C5
:103FB00040502000808F500013003A006002200023
:103FC0005202070010079800700220004F020700FD
:103FD000200798000040EB0053F80700E04F500026
:103FE000220032005E009000E50007008E80E800AD
:103FF0008042EB0084C0B3000081EB008081EB00C5
:1040000071F8070019003700DE00900000702000F2
:104010008080600000602000808F500013003A0014
:10402000DE009000F00F20000080600037020700E3
:104030000100200010079800210798000040EB00C5
:1040400039F80700E04F5000080032005E00900091
:10405000CB0007008E80E8008042EB0084C0B300F4
:104060000081EB008081EB0057F807004F04BE0091
:104070000080FA00000006000400FA001007980013
:104080000040EB00004F78000B0037009E407800A6
:104090000180FB009E009000808040001E40780060
:1040A0000081FB00C08F200000004100104078001C
:1040B000804878001E4FE8001E407800E74F50000F
:1040C000F2FF360010C0B3000080FA0000000600C6
:1040D0000400FA00100798000000EB00000F7800C1
:1040E000711C80000008200000806000E00F50007C
:1040F0000B003200001C80004200DE00F17F200037
:1041000001006000000F78000041EB0081C0B300A7
:10411000C08F20001EF807008EE3A9000F003700B3
:10412000F11B80000008200000806000E00F5000BC
:104130000A003200001C80004200DE00F17F2000F7
:1041400001006000000F780012C0B30081C0B3000E
:10415000C08F20000EF807007EE3A9001E00780043
:10416000E00F500009003200001C80004200DE0019
:10417000F17F200001006000800078001E009000A8
:104180000108780010C0B300010037000040EB00C8
:104190000080FA00000006000000FA00DEA2A9007C
:1041A000811C8000F08F2F00808060000040200084
:1041B00000807000801C88000000000001003700B3
:1041C00000000000811C8000000E20008080600044
:1041D00000082000808F5000F9FF3A0064E3A80037
:1041E0006503A80091E3A80091A3A9009183A8000A
:1041F0009163A800911C800000FC2F0000806000EB
:104200003000B300901C8800911C8000F0F32F0058
:10421000808060000004200000807000901C8800F6
:1042200095C3A900A11C800080FF2F0000806000C2
:10423000A01C8800A11C800080032000008070006A
:10424000A01C8800A11C8000F08F2F0080806000DF
:104250000050200000807000A01C880094E3A8009B
:1042600094C3A8006023A9006003A900701B80000C
:104270003000B300701B88006523A9005023A900FB
:104280005003A900F01A80003000B300F01A880033
:104290005523A9008EE3A9007EE3A9008E43A80060
:1042A0003003A9003803A9000003A9000803A900EE
:1042B0006011B8008000EB000040EB002DF8070013
:1042C0006011B8008000EB0010C0B30029F80700AF
:1042D0000081EB008081EB008080EB000040EB0070
:1042E000F9F707000081EB008081EB008080EB0094
:1042F00010C0B300F4F707000081EB008081EB00F1
:104300008080EB0020C0B300EFF707000081EB00D6
:104310008081EB008080EB0030C0B300EAF707003B
:104320000081EB008081EB008080EB0040C0B30097
:10433000E5F707000081EB008081EB008080EB0057
:1043400050C0B300E0F70700811C8000F08F2F0001
:1043500000806000801C8800000000000100370021
:1043600000000000811C8000000E20000080600022
:10437000E00F5000FAFF3A000080FA00000006004B
:104380000200FA00000F7800007C20001E00600090
:10439000C500DD001E0078004201DD00F00F2000A6
:1043A00000006100008070000080FA00000006003C
:1043B00010148000E69220001601BE0002014000A9
:1043C0000380B000028BBE0020148000C491200046
:1043D0001401BE00020140000380B000028ABE004A
:1043E000624980000200E10001003300604988005A
:1043F000D24880000201E800D2488800914680003F
:104400000110E10011003B003008AE003028AF0081
:1044100005003700624080000200E10030003300F8
:104420003008A8002E0037003028AE0028003700E2
:10443000624080000200E10029003B00D248800079
:10444000814680000110E10016003300C24688005A
:104450001601BE0023018800120188007B00C800FD
:104460001101800020018000A14988009049880046
:104470001401BE0023018800120188007B00C800DF
:10448000110180002001800001408800B0488800B0
:10449000714680000100E10001003B007046800091
:1044A0006046880060498000004488003008A90008
:1044B0003028A9000001EB008001EB00D248880001
:1044C00062498800028ABE00028BBE0004003700E9
:1044D000724080000200E100010033003028A80093
:1044E00000000600A049800091498000C34680007A
:1044F000110009004388D800204088000040800057
:1045000061468000C3468000110009004388D8003E
:1045100010408800000278001101F00023018000A3
:10452000201480004500DD00004988000000CA001A
:104530004700C8001001800021018000110009001F
:104540004388D80000027800B54B80000449800001
:104550001301C000200180004100DD0030498800C7
:1045600000000600301480004400DD00904B8800FD
:10457000D1408000414988000100E1000200340080
:10458000F0FF2700B040880060932000954B80002A
:1045900047498000058253005080CA00C00278005D
:1045A00045018800854080001301C0007C00C800E0
:1045B0000000CB000600CC00B14080000130E100DB
:1045C00004003C00C14080000130E10001003400E3
:1045D00086007800954080001301C000010353005D
:1045E000A54080001241C4000000CB005000CC0068
:1045F0001501800005207800B14B880000000600FE
:10460000101480004500DD002049880040952000FE
:104610002549800037498000058253005080CA0038
:10462000C002780045018800E54080001301C00009
:104630007C00C8000000CB000600CC0011418000C7
:104640000130E10004003C00214180000130E10024
:104650000100340086007800F54080001301C0009E
:1046600001035300054180001241C4000000CB004B
:104670005000CC0015018000052078000100780072
:104680000001780043418000110009000381D80037
:10469000D04B8800514080000008E1000300340046
:1046A000D04B8000600C8800020037005140800031
:1046B000610C880000000600204D200000017800F9
:1046C0004211DD004100DD0002004000204D2000CD
:1046D000620020000200B800000006000200FA009C
:1046E000000F7800100320009E007800808F50009B
:1046F00004003600100420009E007800808F5000D7
:1047000002003600C0032000000F7800610880001E
:104710001E0078000088B900800078004006200064
:1047200000017800110009008280D800900C8800F8
:104730000080FA00000006000400FA00889FBE0016
:10474000008FBE00900C80006104B8001E01BE0006
:1047500000402200410F200014F7070061005000C4
:10476000E080580000C9B90002017800088AB90049
:1047700084017800030141000040B80001014100BC
:1047800082007800620880000300200007F707001D
:1047900000007800900C88001E01BE00004022003E
:1047A000410F200001F70700000078000000E90039
:1047B000600888004F04BE000080FA000000060078
:1047C0000600FA00008FBE00220798000000EB00F0
:1047D000300888001E00BE00D7FF07002E009000A2
:1047E000BEFF07009661A900B10C800080FF2F007A
:1047F00000806000B00C880011E1A8000080FA0081
:1048000000000600CA0800001C00000002000000B2
:1048100088139E00002400001301DC000500000046
:1048200000009000010000000000000000000000F7
:10483000000000000000000000080000CA000000A6
:1048400000000000E6080000160000000000000064
:104850000C09000004000000000000001409000022
:104860000200000000000000100900000400000029
:1048700002000000000019000000000072090000A2
:104880000A0000000200000000000000000000001C
:104890000000000000000000160900005C0000009D
:1048A00000000000FC0800000800000000000000FC
:1048B00004090000080000000200000008070600CC
:1048C000050403000201000000000000841F7800BE
:1048D000F407200094018800243B880004C02F00C6
:1048E0004100DD0004004000103B8800120007007A
:1048F00044002400043B88000108BB0010000700AE
:10490000010078004F02780000000600841F780044
:10491000F407200094018800243B880004C02F0085
:10492000143B88004100DD00040240001400BA007E
:104930004F0278000000060044042400043B880075
:104940001000FC0054052000343B8800A40A20001D
:10495000343B880061E7A800000000000000000070
:1049600061E7AF00FEFF3700000006000000FA001C
:104970000000EB000008880000E224001008880016
:104980008460A9008C60A800A1048000F0FF2800CA
:10499000808060000000250000807000A004880076
:1049A00000012800200888000080FA0000000600AE
:1049B000801F78000000FA0080488000E00F50005F
:1049C00003003200804880000000E9008048880031
:1049D00090488000E00F50000300320090488000B3
:1049E0000000E9009048880010C0B30014E9B70047
:1049F0008460A9000080FA004F00780000400600A3
:104A00000000FA000000EB0050168800CAC2A8009F
:104A1000C6C2A8000000EB00801688000000EB0072
:104A2000B0168800D202A900D242A900D262A90021
:104A30000000EB00E0168800D842A900D862A90067
:104A4000D882A800D8A2A8000000EB0010178800A8
:104A5000DE82A900DEA2A900DEC2A9000080FA0061
:104A600000000600FFFFFF00FFFFFF00FFFFFF0049
:104A7000FFFFFF00FFFFFF00FFFFFF00FFFFFF0042
:104A8000FFFFFF00FFFFFF00FFFFFF00FFFFFF0032
:104A9000FFFFFF00FFFFFF00FFFFFF00FFFFFF0022
:104AA000FFFFFF00FFFFFF00FFFFFF00FFFFFF0012
:10FFF000FFFFFF00FFFFFF00FFFFFF00B249770098
:0200000400FFFB
:10F80000AA5500009001000064000000906500000F
:10F81000780500006B000000FF7F0000F0D80000BA
:10F82000343A0000DC0500008813000032000000BC
:10F83000FF7F000020030000B80B00004B00000019
:10F840000A0000000100000000000000400000006D
:10F850002C0100005B0400007D080000FFFF000099
:10F86000FFFF000000000000000000000100000099
:10F870000A000000FFFF0000FFFF0000FFFF000084
:10F88000FFFF0000FFFF0000FFFF0000FFFF000080
:10F89000FFFF0000FFFF00000B010000040000005C
:10F8A000FFFF0000FFFF0000FFFF0000FFFF000060
:10F8B000FFFF0000FFFF0000FFFF0000FFFF000050
:10F8C000FFFF0000FFFF0000FFFF0000FFFF000040
:10F8D000FFFF0000FFFF0000FFFF0000FFFF000030
:10F8E000FFFF0000FFFF0000FFFF0000FFFF000020
:10F8F000FFFF0000FFFF0000FFFF0000FFFF000010
:10F900005A5A0000FFFF0000FFFF0000FFFF000049
:10F91000FFFF0000FFFF0000FFFF0000FFFF0000EF
:10F92000FFFF0000FFFF0000FFFF0000FFFF0000DF
:10F93000FFFF0000FFFF0000FFFF0000FFFF0000CF
:10F94000FFFF0000FFFF0000FFFF0000FFFF0000BF
:0200000401F009
:100000000683000023800000938700000F3100006A
:0C0010000F3300000700000003C00000D8
:020000040100F9
:100B8000FFFFFF00FFFFFF009A785600FFFFFF0006
:100B9000FFFFFF00FFFFFF00FFFFFF00FFFFFF0061
:100BA000FFFFFF00FFFFFF00FFFFFF00FFFFFF0051
:100BB000FFFFFF00FFFFFF00FFFFFF00FFFFFF0041
:100BC000FFFFFF00FFFFFF00FFFFFF00FFFFFF0031
:100BD000FFFFFF00FFFFFF00FFFFFF00FFFFFF0021
:100BE000FFFFFF00FFFFFF00FFFFFF00FFFFFF0011
:100BF000FFFFFF00FFFFFF00FFFFFF00FFFFFF0001
:00000001FF
